:020000040800F2
:10000000A80D0020ED010008215E0008174400083B
:10001000B95C0008CB0700087182000800000000EE
:100020000000000000000000000000001D63000848
:10003000190A00080000000059610008456800081E
:10004000070200080702000807020008070200086C
:10005000070200080702000807020008070200085C
:10006000070200080702000807020008F507000859
:10007000070200080702000807020008070200083C
:10008000070200080702000807020008070200082C
:10009000070200080702000807020008070200081C
:1000A00007020008016900080702000807020008AB
:1000B00007020008070200080702000807020008FC
:1000C00007020008070200080702000807020008EC
:1000D0000702000861820008070200080702000802
:1000E0001B0A0008070200080702000807020008B0
:1000F00007020008070200080702000807020008BC
:1001000007020008070200080702000807020008AB
:10011000070200080702000807020008070200089B
:10012000070200080702000807020008070200088B
:10013000070200080702000807020008070200087B
:10014000070200080702000807020008070200086B
:10015000070200080702000807020008070200085B
:10016000070200080702000807020008070200084B
:10017000070200080702000807020008070200083B
:10018000070200080702000807020008070200082B
:10019000070200080000000007020008070200082C
:1001A000070200080702000807020008A55200081D
:1001B00007020008070200080702000807020008FB
:1001C00007020008070200080702000807020008EB
:1001D0000702000807020008DFF80CD000F0B8FAA8
:1001E00000480047398A0008A80D002006488047CB
:1001F00006480047FEE7FEE7FEE7FEE7FEE7FEE70C
:10020000FEE7FEE7FEE7FEE7E5680008D901000823
:100210002DE9F05F0546002092469B46884606463B
:10022000814640241BE0284641464746224600F0CE
:10023000D8F953465A46C01A914110D31146184670
:10024000224600F0BFF92D1A67EB01084F462246FF
:100250000120002100F0B6F917EB00094E41201EE5
:10026000A4F10104DFDC484631462A464346BDE896
:10027000F09FD2B201E000F8012B491EFBD270477B
:100280000022F6E710B513460A4604461946FFF762
:10029000F0FF204610BD2DE9FE4F804681EA0300A5
:1002A000C00F0C46009021F0004123F00045B8EB50
:1002B0000200A94105D24046214690461C460B4605
:1002C000024623F00040104347D0270DC7F30A0031
:1002D000C3F30A510290401A019040286BDAC3F32D
:1002E000130040F4801B0098924620B10023D2EB0B
:1002F000030A63EB0B0B01985946C0F140025046CC
:1003000000F060F906460D4650465946019A00F045
:1003100078F910EB08006141002487EA115284EA61
:10032000E7731A4340D0009A62B3019A012A4FEA58
:10033000075215DC001B61EB02014FF0004202EA9C
:100340000752CDE90042001C41F5801132462B4690
:1003500000F0AFF903B0BDE8F08F40462146F9E761
:10036000001B61EB0201001C41F5801300185B418A
:100370002018A2F5001747EB030140EAD570B61923
:100380006D4111E06D084FEA360645EAC0754FEA47
:100390000752001B61EB0201001C41F58011490866
:1003A0004FEA30000019514132462B4603B0BDE8F8
:1003B000F04F00F06FB90098012240000023D0EB0D
:1003C000020263EBE073009821464FEAE074B8EB59
:1003D000000061EB0401E9E783F000435BE781F093
:1003E000004158E72DE9FE4F81EA030404F0004480
:1003F00021F0004100944FF0000B23F0004350EA3D
:1004000001045ED052EA03045BD0C3F30A54C1F383
:100410000A552C44A4F2F3340194A0FB0254C1F316
:10042000130141F48011C3F3130343F4801301FB60
:10043000024400FB034E840A970A44EA815447EAC7
:100440008357A4FB076802958D0A05FB07854FEAD1
:10045000932C04FB0C542705029D4FEA065847EAEB
:100460001637B5EB08056EEB070C870E920E47EAC0
:10047000811742EA8312A7FB0201B6EB0B0164EB82
:1004800000042B0D43EA0C335E1844EB1C50DA4693
:100490005146E7FB0201C5F313044FEA0B3343EA6D
:1004A00014534FEA0432019C43EA0603A4F10C04FE
:1004B0000294009CCDE900B400F0FBF803B0BDE865
:1004C000F08F00200146F9E70EB5C10F80EAE07019
:1004D0000844CA07002140F233438DE80E000A4663
:1004E0000B4600F0E6F803B000BD0EB540F2334114
:1004F00002910021CDE900110A460B4600F0D9F81F
:1005000003B000BD00F0004230F000400AD0C10D41
:1005100001F56071C0F3160042EA0151C2084007BC
:1005200011437047002001467047000030B5041E9B
:1005300071F1000404DB4FF00044404264EB010120
:10054000141E73F1000405DB1C464FF000435242B9
:1005500063EB04038B4208BF824230BD30B5041EFA
:1005600071F1000404DB4FF00044404264EB0101F0
:10057000141E73F1000405DB1C464FF00043524289
:1005800063EB0403994208BF904230BD01F0004381
:1005900030B421F0004150EA010206D00A0DA2F564
:1005A0006072C1F31301002A02DC30BC00207047E6
:1005B000440F44EAC104C100E01830BC00EBC25053
:1005C00000F031B8202A04DB203A00FA02F10020C2
:1005D00070479140C2F1200320FA03F31943904081
:1005E0007047202A04DB203A21FA02F000217047EC
:1005F00021FA02F3D040C2F120029140084319468B
:100600007047202A06DBCB17203A41FA02F043EA72
:10061000E07306E041FA02F3D040C2F120029140BB
:100620000843194670470029A8BF7047401C49007D
:1006300008BF20F00100704710B4B0FA80FC00FA47
:100640000CF050EA010404BF10BC704749B1CCF172
:10065000200421FA04F411FA0CF118BF01212143FE
:100660000843A3EB0C01CB1D4FEA00614FEA1020B9
:1006700042BF002010BC704700EBC350104400295B
:10068000A4BF10BC7047401C490008BF20F0010007
:1006900010BC704710B5141E73F1000408DA401C3A
:1006A00041F1000192185B411A4301D120F0010091
:1006B00010BD2DE9F04D92469B4611B1B1FA81F281
:1006C00002E0B0FA80F220329046FFF77BFF04464A
:1006D0000F4640EA0A0041EA0B0153465A460843D6
:1006E00013D0114653EA010019D0C8F14002504618
:1006F000FFF777FF05460E46504659464246FFF73C
:1007000061FF084305D0012004E020463946BDE8DA
:10071000F08D0020054346EAE0762C4337430A98E3
:100720006305E40AA0EB08000022FD0A44EA4754EE
:100730000A3002D500200146E9E701051019694198
:10074000DDE9084500196941BDE8F04DA2E7000068
:10075000064C074D06E0E06840F0010394E807000E
:1007600098471034AC42F6D3FFF73AFDA494000842
:10077000C494000870B58C1810F8015B15F00703DD
:1007800001D110F8013B2A1106D110F8012B03E02A
:1007900010F8016B01F8016B5B1EF9D12B0705D432
:1007A0000023521E0DD401F8013BFAE710F8013B7B
:1007B000CB1A921C03E013F8015B01F8015B521E97
:1007C000F9D5A142D8D3002070BD00BFFEE70000DC
:1007D0009FED060A064880ED000A9FED040A80EDB1
:1007E000010A9FED020A80ED020A70470000000036
:1007F000CC06002010B5024801F0A6F910BD00009B
:10080000DC02002030B50E4D0468AC4201D20D4927
:1008100001E00C4920310B460478083C1425B4FB58
:10082000F5F2446CA40803EB84048464054C803422
:10083000C46402F01F050124AC40046530BD000013
:10084000080402400008024001794A1E064B03EBEF
:1008500082024265044A403282654A1E02F01F034A
:1008600001229A40C26570470009024038B504462B
:100870002348007A012833D120788DF80000607871
:100880008DF80100A0788DF80200E0788DF8030063
:100890009DED000A1B4880ED080A20798DF80000C4
:1008A00060798DF80100A0798DF80200E0798DF86B
:1008B00003009DED000A134880ED090A207A8DF8A7
:1008C0000000607A8DF80100A07A8DF80200E07ACD
:1008D0008DF803009DED000A0A4880ED0A0A00BF6A
:1008E000002006E0215C084A125C914200D038BD2D
:1008F000401C0C28F6DB01F025FC00BFF7E70000E8
:10090000D4050020280800200100002070B59EB00A
:100910000024642104A8FFF7B3FCAA222146641C2A
:1009200004A8425455222146641C425426462748B6
:1009300090ED1E0A8DED000A90ED1F0A8DED010A63
:1009400090ED200A8DED020A90ED230A8DED030A49
:10095000002023E0694601EB800191ED000A8DED56
:100960001D0A9DF874302146621CD4B204AA535467
:100970009DF875302146621CD4B204AA53549DF8E8
:1009800076302146621CD4B204AA53549DF87730C5
:100990002146621CD4B204AA5354401C0428D9D363
:1009A0000025304604E004A9095C2944CDB2401C6E
:1009B000A042F8DB2046611CCCB204A90D542146AC
:1009C00004A805F0ADFC1EB070BD00002808002092
:1009D0002DE9F04104461425322628274FF01E0841
:1009E0000C48006820440B49086008460068322122
:1009F000B0FBF1F201FB1200312801D1FFF786FFB5
:100A000004480068B0F5966F02D9002001490860DB
:100A1000BDE8F08110000020704710B54FF4805001
:100A200001F096F94FF4005001F092F910BD00006A
:100A300010B52DED068B84B0044600200090019087
:100A4000029003904FF08040406A00B20090374817
:100A5000006800B2404202903548006800B240424F
:100A600001903448406A00B2039000204FF080416A
:100A700048622E4908602E4908602E494862204687
:100A8000FFF733FD41EC1A0B9FED2B0B53EC102BB2
:100A9000FFF7A8FC41EC190BFFF778FD08EE100AF0
:100AA0009DED000AF8EEC00A9FED251A80EE810A3E
:100AB000C0EE080A9FED230A20EE800A224880ED4E
:100AC000170A9DED010AF8EEC00A9FED1D1A80EE8F
:100AD000810AC0EE080A9FED1B0A20EE800A80ED15
:100AE000180A9DED020AF8EEC00A9FED151A80EE75
:100AF000810AC0EE080A9FED130A20EE800A80EDFD
:100B0000160A9DED030AF8EEC00A9FED0D1A80EE5D
:100B1000810AC0EE080A9FED0B0A20EE800A80EDE4
:100B2000190A04B0BDEC068B10BD0000240400407F
:100B300024080040005001408DEDB5A0F7C6B03E3E
:100B40000060EA460000704228080020704700005C
:100B500070B52DED0A8B04468C4890ED080ADFED48
:100B60008C0A20EE200AF0EE409A90ED090ADFEDA3
:100B7000880A20EE200AB0EE40AA90ED0A0ADFEDC6
:100B8000840A20EE200AF0EE40AAD0ED040AB0EE6E
:100B9000001A80EE810AD0ED050AB0EE001AC0EE10
:100BA000811A30EE210A20EE2A0AB0EE40BA90ED0A
:100BB000070AC9EE800AF0EE608A90ED070ACAEED5
:100BC000000AB0EE609A90ED080AB5EEC00AF1EEA8
:100BD00010FA0DD190ED090AB5EEC00AF1EE10FA47
:100BE00006D190ED0A0AB5EEC00AF1EE10FA19D05E
:100BF0006848D0ED110A654890ED0D1A70EEC10AF3
:100C0000B0EE600A08F040F910EE105A2846FFF7DF
:100C100079FC41EC1C0B9FED600B53EC102BFFF7A4
:100C20009DFC0AD2594890ED070ACBEE000A5C48B9
:100C3000C0ED0B0A90ED0B8A2CE0564890ED111A8E
:100C4000F0EE410A514890ED0A1AB0EE410ADFED8C
:100C5000551A9FED541A5249204605F0E3F84B48C7
:100C6000D0ED001AF8EEE11AB0EE611A00684042C9
:100C700001EE900AF8EEE11AF0EE610A4848D0ED74
:100C80000B1AB0EE610A00F089FA454880ED0B0AB4
:100C900090ED0B8A38EEC90A30EE480A3B4880EDE9
:100CA0000E0AD0ED001AF8EEE11AB0EE611A0068F3
:100CB000404201EE900AF8EEE11AF0EE610A334884
:100CC000D0ED0E1AB0EE610A00F068FA2F4880ED00
:100CD0000E0A38EE890A30EE080A80ED0F0AD0EDD0
:100CE000001AF8EEE11AB0EE611A0068404201EE17
:100CF000900AF8EEE11AF0EE610A2448D0ED0F1ADE
:100D0000B0EE610A00F04AFA204880ED0F0A38EE92
:100D1000890A30EE480A80ED100AD0ED001AF8EE8C
:100D2000E11AB0EE611A0068404201EE900AF8EE56
:100D3000E11AF0EE610A1548D0ED101AB0EE610A22
:100D400000F02CFA114880ED100A38EEC90A30EE96
:100D5000080A80ED110AD0ED001AF8EEE11AB0EEA3
:100D6000611A0068404201EE900AF8EEE11AF0EED6
:100D7000610A0648D0ED111AB0EE610A00F00EFAD1
:100D8000024880ED110ABDEC0A8B70BD28080020D6
:100D90000000704208070020000000000000E03F53
:100DA0007809002000000000F0B52DED108B8BB00D
:100DB0000546BB4890ED160AB0EE408A90ED170A42
:100DC000F0EE408A90ED180AB0EE409A90ED190AC4
:100DD000F0EE409A38EE280A30EE090A70EE290A41
:100DE00090ED030AB8EEC01A80EE810ADFEDAD0A7D
:100DF00080EE201A8DED0A1AB1EE480A30EE280A6C
:100E000030EE090A70EE690A90ED030AB8EEC01AD6
:100E100080EE810ADFEDA30A80EE201A8DED091A1B
:100E2000B1EE480A30EE280A30EE490A70EE290A7F
:100E300090ED030AB8EEC01A80EE810ADFED990A40
:100E400080EE201A8DED081AD0ED070A9DED0A0AF2
:100E500020EE800A80ED0B0AD0ED070A9DED090A0D
:100E600020EE800A80ED0C0A90ED040AB0EE001A24
:100E7000C0EE010A90ED050AB0EE001AC0EE011AAC
:100E800070EEA10A90ED071A9DED080A21EE000A06
:100E900080EE201A80ED0D1A90ED0B0A80ED1E0AEF
:100EA00090ED0C0A80ED1F0A7F4890ED110A7C48F6
:100EB00080ED200A7D4890ED390AB1EE400A78486D
:100EC00080ED230A00EE105AB8EE400ADFED780AF2
:100ED00020EE200A10EE106A90ED230ADFED750A6D
:100EE00080EE201A9FED740A21EE000A10EE104ADF
:100EF0003046FFF707FB41EC1C0B2046FFF702FBD7
:100F000041EC1E0BB0EE4E0AF0EE6E0A08F016F839
:100F1000B0EE40DAF0EE60DA614890ED1F0A10EEB4
:100F2000101A0846FFF7EEFA53EC1D2BCDE900012D
:100F30009DED000B51EC100BFFF754FACDE90401C5
:100F40002046FFF7DFFA41EC1D0BB0EE4D0AF0EE44
:100F50006D0A07F0A7FF5248D0ED1E0A20EE200AC6
:100F600010EE107A3846FFF7CDFACDE902019DED7B
:100F7000040B53EC102B9DED020B51EC100BFFF703
:100F80008AF953EC1C2BCDE906019DED060B51ECC3
:100F9000100BFFF727FA41EC1A0B414890ED210A9C
:100FA00010EE101A0846FFF7ADFA41EC1B0B53EC9C
:100FB0001A2BFFF770F941EC1F0BFFF7E7FA3849DE
:100FC000C1F884003046FFF79DFACDE904012046C0
:100FD000FFF798FA41EC1C0BB0EE4C0AF0EE6C0AED
:100FE00007F060FF2E48D0ED1F0A20EE200A10EE19
:100FF000107A3846FFF786FACDE900012046FFF760
:1010000081FA41EC1E0BB0EE4E0AF0EE6E0A07F0CC
:1010100095FFB0EE40CAF0EE60CA214890ED1E0A7E
:1010200010EE101A0846FFF76DFA41EC1D0B53EC59
:101030001C2BFFF7D7F941EC1B0B9DED000B53EC7C
:10104000102BFFF728F9CDE902019DED040B53ECBD
:10105000102B9DED020B51EC100BFFF7C3F941EC87
:101060001A0B0F4890ED220A10EE101A0846FFF7EF
:1010700049FA53EC1A2BCDE906019DED060B51EC14
:10108000100BFFF708F941EC1F0BFFF77FFA014641
:101090000348C0F888100BB0BDEC108BF0BD000009
:1010A00028080020000070420807002018000020D7
:1010B000BD37863500003443DB0F494070B5044628
:1010C0002648007838B9AA2C05D124480078401C5D
:1010D0002249087040E021480078012807D1552CAA
:1010E00005D11E480078401C1C49087034E01B489C
:1010F000007802282DD11A4801780078401C184A3F
:10110000107018484454104600780D2824DB002540
:10111000002004E01349095C2944CDB2401C104969
:101120000978491E8142F5DC0D480078401E0D49C2
:10113000085CA84207D10846FFF798FB20214FF032
:10114000904000F0FFFE0020044908700449087038
:1011500002E000200149087070BD0000140000206A
:1011600015000020200600204FF0E02040694FF0DD
:10117000E0218969401A4FF47A7148434FF0E02129
:101180004969B0FBF1F004490A684FF47A71A2FB97
:101190000112401870470000A8010020F0EE401A2C
:1011A000F4EEE01AF1EE10FA02D8B0EE600A7047E1
:1011B000F4EEC11AF1EE10FA02DDB0EE410AF6E7E4
:1011C000B0EE610AF3E700002DE9F84F05460C4642
:1011D0004FF0000A00200090FE49E068884200D0ED
:1011E00000E000BF00BF95F85800012802D102209E
:1011F000BDE8F88F012085F8580000BF286803F08B
:1012000049FF00287DD12968D4E9002001F1300C84
:10121000C0F3012B0CEB8B03D3F800C000F01F0EC2
:101220004FF01F0B0BFA0EFB2CEA0B0C00F01F0B00
:10123000C2F3846E0EFA0BFE4CEA0E0CC3F800C02B
:1012400000BF286803F026FF8146286803F013FFDB
:101250008046B9F1000F64D1B8F1000FFBD1A0684E
:10126000B0F1004F0AD121680022286803F017FF6F
:101270004FF00041286803F037FF08E0A2682168BA
:10128000286803F00CFF0021286803F02DFF606937
:101290002968C968C1F3C101490000FA01F7206952
:1012A00004283FD028682268216900F1600C0CEB0B
:1012B0008103D3F800C0DFF820B30CEA0B0C02F076
:1012C000F84B4BF0004B4BEA070B4CEA0B0CC3F806
:1012D00000C000BF2868A269216900F1600C0CEB16
:1012E0008103D3F800C02CF0807C4CEA020CC3F8D8
:1012F00000C000BF2868227F2169012A02D152065E
:1013000001E0F9E10022134600F1600C0CEB8102D0
:10131000D2F800C02CF0007C4CEA030CC2F800C0EC
:1013200000BFA7E00021286803F09CFEC0F3120074
:1013300030B90021286803F095FEC0F3846007E00F
:101340000021286803F08EFE90FAA0F0B0FA80F039
:101350002168C1F3120119B92168C1F3846104E065
:10136000216891FAA1F1B1FA81F1884204D10022F9
:101370001146286803F0ADFE0121286803F072FED3
:10138000C0F3120030B90121286803F06BFEC0F3EE
:10139000846007E00121286803F064FE90FAA0F061
:1013A000B0FA80F02168C1F3120119B92168C1F3C4
:1013B000846104E0216891FAA1F1B1FA81F18842D7
:1013C00004D100220121286803F083FE022128684D
:1013D00003F048FEC0F3120030B90221286803F080
:1013E00041FEC0F3846007E00221286803F03AFE62
:1013F00090FAA0F0B0FA80F02168C1F3120119B997
:101400002168C1F3846104E0216891FAA1F1B1FA85
:1014100081F1884204D100220221286803F059FE9C
:101420000321286803F01EFEC0F3120030B9032127
:10143000286803F017FEC0F3846007E003212868E2
:1014400003F010FE90FAA0F0B0FA80F02168C1F32A
:10145000120119B92168C1F3846104E0216891FA8D
:10146000A1F1B1FA81F1884204D100220321286858
:1014700003F02FFE286803F003FE002872D12868CD
:10148000E2682168D0F8B030C1F3120C23EA0C03F3
:1014900002F0180BDFF844C12CFA0BFC0CEA010C2B
:1014A00043EA0C03C0F8B03000BF4A49E068884204
:1014B00058D12368C3F312031BB92368C3F38463B1
:1014C00004E0236893FAA3F3B3FA83F35B1C03F0FD
:1014D0001F03092B3ED82368C3F312031BB92368EB
:1014E000C3F3846304E0236893FAA3F3B3FA83F3AA
:1014F0005B1C03F01F034FF0010C0CFA03FC236884
:10150000C3F312031BB92368C3F3846304E02368A5
:1015100093FAA3F3B3FA83F35B1C03F01F034CEAC3
:10152000836C2368C3F312031BB92368C3F384637A
:1015300004E0236893FAA3F3B3FA83F35B1C03F08C
:101540001F0303EB43034FF0000B4BEA03534CEA3A
:10155000030347E02368C3F3120323B92368C3F3EB
:10156000846305E043E0236893FAA3F3B3FA83F3BB
:101570005B1C03F01F034FF0010C0CFA03FC236803
:10158000C3F312031BB92368C3F3846304E0236825
:1015900093FAA3F3B3FA83F35B1C03F01F034CEA43
:1015A000836C2368C3F312031BB92368C3F38463FA
:1015B00004E0236893FAA3F3B3FA83F35B1C03F00C
:1015C0001F030A3B03EB43034FF0007B4BEA03533B
:1015D00006E0000000007F4000F0FF03FFFF07006F
:1015E0004CEA03031946A268286803F058FD4949EC
:1015F00020680840002842D02968B1F1A04F03D0EC
:10160000454A2968914201D1444900E044490846CD
:10161000816801F0E07600BF42492068884203D02B
:101620004149206888422BD106F4000040BB28685D
:10163000B0F1A04F03D03D492868884262D12A68A2
:10164000B2F1A04F03D0344B2A689A4201D1334AF9
:1016500000E0334A104646F4000103F034FD3448FC
:1016600000683449B0FBF1F000EB400080000090CE
:1016700002E00098401E009000980028F9D141E057
:101680002D49206888421BD106F08070C0B92249DC
:101690002868884203D129492868884232D02A68BC
:1016A000B2F1A04F03D01C4B2A689A4201D11B4AC9
:1016B00000E01B4A104646F0807103F004FD21E073
:1016C0001F49206888421DD106F48000D0B9124914
:1016D0002868884216D02A68B2F1A04F03D00B4682
:1016E0002A689A4201D10D4A00E00D4A104646F49C
:1016F000800103F0E8FC05E0E86D40F02000E865BB
:101700004FF0010A00BF002085F8580000BF504686
:101710006EE500000000088000010050000300504A
:1017200000070050000021C31000C09000060050C8
:1017300068020020400D0300000052C70005005061
:10174000000084CB2DE9F84F04464FF0000900203B
:10175000009014B90120BDE8F88F606920B194F8B9
:101760002400012800D100BFE06D30B9204600F010
:1017700049F90020206684F8580020688168C1F388
:10178000407131B120688168934A1140816000BF87
:1017900000BF206803F079FCA0B9206881688F4AF7
:1017A000114041F08051816000BF8D4800688D4933
:1017B000B0FBF1F0009002E00098401E009000980D
:1017C0000028F9D1206803F060FC48B9E06D40F0D2
:1017D0001000E065206E40F0010020664FF0010926
:1017E000206803F057FC0646E06D00F0100000286A
:1017F0007ED1002EFCD1E06D20F4807040F002001C
:10180000E065206803F03CFC88BB2068B0F1A04F85
:1018100003D075492068884201D1744800E07448BB
:10182000724988420AD14FF0A04003F029FC824659
:101830006D4803F025FC4AEA00000DE06D4803F016
:101840001FFC82466C4803F01BFC4AEA000A6B4806
:1018500003F016FC4AEA000048B92268B2F1A04F32
:1018600003D0614B22689A4202D1604A01E009E04C
:101870005F4A10466168826822F47C120A438260E3
:1018800000BF00BF607FE16B41EA4030E168084380
:10189000A168084394F8241040EA014594F8240014
:1018A000012803D1208D401E45EA4045E06A28B159
:1018B000A08D00F47870216B084305432068C06850
:1018C0004F49084028432168C8602068006920F01B
:1018D0004060616B084321680861206803F0DAFB0F
:1018E0008046206803F0C7FB0746B8F1000F00E010
:1018F0006AE04FD1F7BB207F002141EA803194F8A4
:10190000380041EA40052068C06844F2020188437B
:1019100028432168C860206980B12068006940F4CC
:101920008030216808612068D0F8C0006FF30D0096
:10193000216908432168C1F8C0000DE020680069F2
:1019400020F48030216808612068D0F8C0006FF36F
:101950000D002168C1F8C00094F84000012813D19F
:10196000606C40F00101A06C0843E16C0843216DFC
:10197000084300E00EE02168096940F2FC729143DF
:1019800008432168086105E02068006920F0010033
:10199000216808616069012809D12068006B20F086
:1019A0000F00216A491E08432168086305E020688A
:1019B000006B20F00F0021680863E06D20F002004A
:1019C00040F00100E06505E0E06D40F01000E065EA
:1019D0004FF001094846BEE6C0FFFF5FC0FFFF7F32
:1019E00068020020400D0300000100500003005079
:1019F0000007005000040050000500500006005091
:101A00000740F0FF10B586B00446142101A8FEF788
:101A100037FC24492068884242D100BF2248C06C6C
:101A200040F400502049C8640846C06C00F40050DF
:101A3000009000BF00BF00BF0846C06C40F001002E
:101A4000C8640846C06C00F00100009000BF00BFF1
:101A500040200190032002900020039001A94FF044
:101A6000904000F083F91148114908602420486033
:101A700000210F488160C1608021016149004161FE
:101A8000C90081612021C1610021016200F0DCF800
:101A900008B1FFF75BF800BF05486065846200BFCE
:101AA00006B010BD000100500010024008000240C6
:101AB000DC02002070B50446002594F825000228B9
:101AC0000BD00420E063012084F8250000BF002033
:101AD00084F8240000BF012534E02068006820F06D
:101AE0000E00216808602068006820F0010021686D
:101AF0000860A06C006820F48070A16C086094F805
:101B0000440000F01F0101208840216C4860D4E9A6
:101B100013104860606D40B1606D006820F4807003
:101B2000616D0860D4E916104860012084F8250032
:101B300000BF002084F8240000BFA06B10B1204635
:101B4000A16B8847284670BD70B50446206C0568B7
:101B50002068066894F8440000F01F0104208840C3
:101B60002840E0B106F00400C8B12068006800F029
:101B7000200028B92068006820F00400216808606F
:101B800094F8440000F01F0104208840216C486054
:101B9000206B002856D02046216B884752E094F8ED
:101BA000440000F01F0102208840284018B306F0CE
:101BB000020000B32068006800F0200040B92068EF
:101BC000006820F00A0021680860012084F82500E0
:101BD00094F8440000F01F0102208840216C486006
:101BE00000BF002084F8240000BFE06A50B3204604
:101BF000E16A884726E094F8440000F01F010820BD
:101C000088402840F0B106F00800D8B1206800688C
:101C100020F00E002168086094F8440000F01F01D5
:101C200001208840216C48600120E06384F8250091
:101C300000BF002084F8240000BF606B10B1204674
:101C4000616B884770BD000070B504460CB9012077
:101C500070BD2F49206888420BD22E492068401A57
:101C60001421B0FBF1F0800060642A480838206439
:101C70000AE027492068401A1421B0FBF1F08000E7
:101C80006064234808382064022084F82500206816
:101C9000056847F6F0708543D4E9020108432169DD
:101CA000084361690843A1690843E1690843216A5F
:101CB00008430543206805602046FEF7A3FDA068A1
:101CC000B0F5804F01D1002060602079A16C0860E0
:101CD000D4E913104860606860B16068042809D8CE
:101CE0002046FEF7B1FD0020616D0860D4E91610B2
:101CF000486003E000206065A065E0650020E063C7
:101D0000012084F82500002084F8240000BF9FE70C
:101D1000080402400800024070B5044600F01EF9B5
:101D200006462546681C10B104480068054400BFFB
:101D300000F014F9801BA842FAD370BD64020020A1
:101D400010B50446B4F5805F01D103F0BBF810BDB7
:101D500010B5044604480068204020B102480460E1
:101D60002046FFF7EDFF10BD1404014078B503468F
:101D70000022D0E0012696400D6805EA0604002CFA
:101D800072D04D68022D02D04D68122D13D1D608A5
:101D900003F1200555F826005507EE0E0F25B54036
:101DA000A8435607F60E0D69B5402843D60803F13F
:101DB000200545F82600186856000325B540A843BD
:101DC0000D7905F003055600B540284318604D68AD
:101DD000012D08D04D68022D05D04D68112D02D07F
:101DE0004D68122D13D1986856000325B540A843BD
:101DF0005600CD68B5402843986058680125954045
:101E0000A8430D79C5F30015954028435860D8685C
:101E100056000325B540A84356008D68B5402843B9
:101E2000D8604D6805F08055B5F1805F72D100BF74
:101E30003C4D2D6E45F001053A4E356635462D6E0A
:101E400005F00105009500BF00BF4FEAB6359608C2
:101E500055F8260095072E0F0F25B540A843B3F17E
:101E6000904F02D100251AE054E02F4DAB4201D132
:101E7000012514E02D4DAB4201D102250FE02C4D80
:101E8000AB4201D103250AE02A4DAB4201D1042522
:101E900005E0294DAB4201D1052500E00625960756
:101EA000360FB5402843254D960845F82600244DA9
:101EB0002868A0434D6805F48035B5F5803F00D112
:101EC00020431F4D28602D1D2868A0434D6805F450
:101ED0000035B5F5003F00D12043194D2D1D286078
:101EE0002D1D2868A0434D6805F48015B5F5801FA9
:101EF00000D12043124D083528602D1D2868A043CD
:101F00004D6805F40015B5F5001F00D120430C4DB8
:101F10000C352860521C0D68D540002D7FF42AAF87
:101F200078BD00000010024000040048000800488E
:101F3000000C004800100048001400480800014050
:101F40000004014042690A400AB1816200E08161F7
:101F500070470AB1816100E0816270470148006802
:101F6000704700005C0200200348006803490968CC
:101F700008440149086070475C02002064020020A8
:101F800010B50024032000F0C9F8002000F008F884
:101F900008B1012401E000F02FF8204610BD000038
:101FA00070B50446002511480068D8B10F48006894
:101FB0004FF47A71B1FBF0F00D490968B1FBF0F60E
:101FC000304600F0CBFF58B9102C07D20022214632
:101FD000501E00F065F80748046004E0012502E0A7
:101FE000012500E00125284670BD000064020020A4
:101FF000680200206002002008B500BF0E48006E95
:1020000040F001000C4908660846006E00F001002F
:10201000009000BF00BF00BF0846806D40F08050B8
:1020200088650846806D00F08050009000BF00BFBA
:1020300000F036F908BD00000010024010B501465E
:102040000846002817DB00F01F0301229A400B4BC3
:10205000440943F8242000BF00BF00BFBFF34F8FE7
:1020600000BF00BF00BF00BF00BF00BFBFF36F8F46
:1020700000BF00BF00BF00BF10BD000080E100E056
:1020800001460846002809DB00F01F0301229A40A0
:1020900043099B0003F1E023C3F8002100BF704710
:1020A0002DE9F05F80460D46164606F0F3F8074628
:1020B00039462A46334601F00700C0F1070ABAF153
:1020C000040F02D94FF0040A01E0C0F1070AD1461B
:1020D00000F1040ABAF1070F02D24FF0000A01E042
:1020E000A0F1030AD4464FF0010A0AFA09FAAAF14C
:1020F000010A0AEA020A0AFA0CFA4FF0010B0BFA7B
:102100000CFBABF1010B0BEA030B4AEA0B04214673
:10211000404606F0C7F8BDE8F09F000000BF00F0A1
:102120000702064B19684FF6FF031940044B0B4397
:1021300043EA0221014B196000BF70470CED00E03B
:102140000000FA0500BF00BF00BF00BF00BFBFF323
:102150004F8F00BF00BF00BF0948006800F4E06077
:1021600008490843001D0649086000BF00BF00BFC2
:10217000BFF34F8F00BF00BF00BF00BF00BFFDE730
:102180000CED00E00000FA0502468ABB41480068F9
:1021900000F4C060B0F5806F2BD13E4880300068FD
:1021A00020F480703B4BC3F880001846006820F490
:1021B000C06040F40070186037480068322358430C
:1021C000364BB0FBF3F0411C00E0491E314840693A
:1021D00000F48060B0F5806F01D10029F5D12D4861
:1021E000406900F48060B0F5806F51D103207047E2
:1021F00008E028488030006820F48070254BC3F840
:10220000800045E0B2F5007F3AD12248006800F432
:10221000C060B0F5806F2AD11E488030006840F45D
:1022200080701C4BC3F880001846006820F4C06022
:1022300040F4007018601848006832235843174B68
:10224000B0FBF3F0411C00E0491E1248406900F465
:102250008060B0F5806F01D10029F5D10D4840694B
:1022600000F48060B0F5806F12D10320BFE7094809
:102270008030006840F48070064BC3F8800007E0AF
:102280000448006820F4C06040F48060014B18608E
:102290000020ACE7007000406802002040420F00C0
:1022A0000348806820F400500149886070470000AE
:1022B000007000402DE9F84304460027B846206826
:1022C00000F40020B0F5002F73D1B946FD48806DB1
:1022D00000F0805078B900BFFA48806D40F080501F
:1022E000F84988650846806D00F08050009000BF76
:1022F00000BF4FF00109F448006840F48070F249D3
:102300000860FFF72BFE064606E0FFF727FE801B5E
:10231000022801D9032705E0EB48006800F480702B
:102320000028F2D000BF002F46D1E6489030006868
:1023300000F44075CDB1206DA84216D0E148903030
:10234000006820F44075DF48D0F8900040F48030F9
:10235000DC49C1F890000846D0F8900020F48030A5
:10236000C1F890000846C0F8905005F00100A0B1F7
:10237000FFF7F4FD064608E0FFF7F0FD801B41F291
:102380008831884201D9032706E0CE4890300068A2
:1023900000F002000028EFD000BF5FB9C9489030BC
:1023A000006820F44070216D0843C649C1F89000D0
:1023B00003E00CE0B84600E0B846B9F1010F05D1E2
:1023C000C048806D20F08050BE49886500BF2078ED
:1023D00000F0010048B1BB488830006820F00300DD
:1023E00061680843B749C1F88800207800F002000E
:1023F000022809D1B3488830006820F00C00A16899
:102400000843B049C1F88800207800F0040004288F
:1024100009D1AC488830006820F03000E1680843FA
:10242000A849C1F88800207800F00800082809D1E0
:10243000A4488830006820F0C00021690843A14901
:10244000C1F88800207800F01000102809D19D48BC
:102450008830006820F44070616908439949C1F8E8
:102460008800207800F02000202809D19548883085
:10247000006820F44060A16908439249C1F88800CF
:10248000207800F04000402809D18E48883000684C
:1024900020F44050E16908438A49C1F88800207857
:1024A00000F08000802809D186488830006820F438
:1024B0004040216A08438349C1F88800208800F41D
:1024C0008070B0F5807F09D17E488830006820F4A4
:1024D0004030616A08437B49C1F88800206800F4F5
:1024E0000030B0F5003F09D176489C30006820F0FC
:1024F0000300A16A08437349C1F89C00208800F4D6
:102500000070B0F5007F09D16E488830006820F473
:102510004020E16A08436B49C1F88800208800F434
:102520008060B0F5806F13D166488830006820F471
:102530004010216B0843634988310860206BB0F577
:10254000801F05D15F48C06840F480105D49C860B5
:10255000208800F40060B0F5006F13D1594888302E
:10256000006820F44000616B0843564988310860D8
:10257000606BB0F5800F05D15248C06840F4801000
:102580005049C860208800F48050B0F5805F13D1B6
:102590004C488830006820F04070A16B08434949DE
:1025A00088310860A06BB0F1807F05D14548C068D4
:1025B00040F480104349C860208800F40050B0F512
:1025C000005F13D13F488830006820F04060E16B25
:1025D00008433C4988310860E06BB0F1006F05D1D9
:1025E0003848C06840F480103649C860208800F43C
:1025F0008040B0F5804F13D132488830006820F019
:102600004060216C08432F4988310860206CB0F18C
:10261000006F05D12B48C06840F480102949C8607C
:10262000208800F40040B0F5004F13D125488830D1
:10263000006820F04050616C0843224988310860EE
:10264000606CB0F1805F05D11E48C06840F48030F6
:102650001C49C860206800F48030B0F5803F13D179
:1026600018488830006820F04040A16C08431549A4
:1026700088310860A06CB0F1804F05D11148C06866
:1026800040F480300F49C860206800F48020B0F525
:10269000802F13D10B489C30006820F44010E16C6F
:1026A000084308499C310860E06CB0F5001F05D173
:1026B0000448C06840F480100249C8604046BDE844
:1026C000F883000000100240007000402DE9F04146
:1026D00004460D464FF0000814B90120BDE8F08112
:1026E0007D48006800F00F00A8420ED27A480068CA
:1026F00020F00F002843784908600846006800F081
:102700000F00A84201D00120E8E7207800F0010086
:10271000002864D06068032823D17048006800F066
:10272000007008B90120D9E703F018FD06466C488F
:10273000864237D96948806800F0F00030B12078CF
:1027400000F0020002282DD1A06858BB63488068C1
:1027500020F0F00040F08000604988604FF0800871
:1027600020E06068022806D15C48006800F4003070
:1027700040B90120B2E75948006800F4806008B908
:102780000120ABE700F0DEF806465548864209D93D
:102790005248806820F0F00040F080004F49886087
:1027A0004FF080084D48806820F0030061680843BE
:1027B0004A498860FFF7D2FB074608E0FFF7CEFBE7
:1027C000C01B41F28831884201D9032086E7434883
:1027D000806800F00C006168B0EB810FEED12078CA
:1027E00000F00200022820D1207800F00400042824
:1027F00005D13A48806840F4E06038498860207824
:1028000000F00800082807D13448806820F46050A0
:1028100040F4E060314988603048806820F0F00082
:10282000A16808432D49886008E0B8F1800F05D100
:102830002A48806820F0F00028498860264800680F
:1028400000F00F00A84219D92348006820F00F00BB
:10285000284321490860FFF781FB074608E0FFF79E
:102860007DFBC01B41F28831884201D9032035E746
:102870001948006800F00F00A842F0D1207800F05D
:102880000400042807D11548806820F4E060E1685E
:10289000084312498860207800F00800082808D111
:1028A0000E48806820F46050216940EAC1000B495D
:1028B000886000F047F809498968C1F30311094AA3
:1028C000515C01F01F01C8400749086007480068D3
:1028D000FFF766FB02E70000002002400010024004
:1028E00000B4C4048C940008680200206002002038
:1028F00001480068704700006802002000B5FFF73B
:10290000F7FF05498968C1F30221044A515C01F0CF
:102910001F01C84000BD0000001002409C94000848
:1029200000B5FFF7E5FF05498968C1F3C221044AF4
:10293000515C01F01F01C84000BD000000100240C2
:102940009C94000870B5224DAD6805F00C05042D6F
:1029500001D120483AE01E4DAD6805F00C05082D68
:1029600001D11D4832E01A4DAD6805F00C050C2D63
:102970002BD1174DED6805F00304154DED68C5F337
:1029800003156A1C022C0CD0032C09D1124DB5FB87
:10299000F2F50F4EF668C6F3062605FB06F10AE0CF
:1029A00000BF0C4DB5FBF2F5094EF668C6F30626DE
:1029B00005FB06F100BF00BF054DED68C5F341659D
:1029C0006D1C6B00B1FBF3F000E0002070BD000057
:1029D000001002400024F40000366E012DE9F84397
:1029E000044614B90120BDE8F883207800F0010006
:1029F000002865D0FC48806800F00C07FA48C068E1
:102A000000F003060C2F01D1032E01D0082F0AD1AC
:102A1000F548006800F40030002851D060680028B4
:102A20004ED10120DFE700BF6068B0F5803F06D1DE
:102A3000ED48006840F48030EB4908601AE06068B7
:102A4000B0F5A02F0BD1E848006840F48020E6499B
:102A500008600846006840F4803008600AE0E248F8
:102A6000006820F48030E04908600846006820F4DF
:102A70008020086000BF606888B1FFF76FFA0546E4
:102A800006E0FFF76BFA401B642801D90320AAE790
:102A9000D548006800F400300028F2D010E0FFF7BD
:102AA0005DFA054606E0FFF759FA401B642801D994
:102AB000032098E7CC48006800F400300028F2D1E9
:102AC000207800F00200022860D1C748806800F03A
:102AD0000C07C548C06800F003060C2F01D1022E78
:102AE00001D0042F18D1C048006800F4806018B1EC
:102AF000E06808B9012076E7BB48406820F0FE4056
:102B0000217C40EA0160B8494860B8480068FFF796
:102B100047FA18B3012066E7E06800B3B2480068DE
:102B200040F48070B0490860FFF718FA054606E0E7
:102B3000FFF714FA401B022801D9032053E7AA48E3
:102B4000006800F480600028F2D0A748406820F0B8
:102B5000FE40217C40EA0160A349486016E0A2489B
:102B6000006820F48070A0490860FFF7F7F9054677
:102B700006E0FFF7F3F9401B022801D9032032E7F2
:102B80009948006800F480600028F2D1207800F0B5
:102B90000800082836D16069D0B1934894300068A5
:102BA00040F001009049C1F89400FFF7D7F90546BD
:102BB00006E0FFF7D3F9401B022801D9032012E7F2
:102BC00089489430006800F002000028F1D019E034
:102BD00085489430006820F001008349C1F89400D2
:102BE000FFF7BCF9054606E0FFF7B8F9401B0228DD
:102BF00001D90320F7E67C489430006800F0020019
:102C00000028F1D1207800F00400042872D14FF0A0
:102C100000087548806D012121EA107078B100BF6D
:102C20007148806D40F080506F4988650846806D1E
:102C300000F08050009000BF00BF4FF001086C48CA
:102C4000006800F48070B0B96948006840F4807092
:102C500067490860FFF782F9054606E0FFF77EF94D
:102C6000401B022801D90320BDE66148006800F43A
:102C700080700028F2D000BFA068012808D15A480F
:102C80009030006840F001005749C1F8900021E001
:102C9000A06805280FD154489030006840F0040027
:102CA0005149C1F890000846D0F8900040F001006A
:102CB000C1F890000EE04C489030006820F0010010
:102CC0004949C1F890000846D0F8900020F004006F
:102CD000C1F8900000BFA068A8B1FFF73FF9054612
:102CE00009E0FFF73BF9401B41F28831884202D9E5
:102CF000032078E625E03C489030006800F00200B0
:102D00000028EED013E0FFF729F9054608E0FFF7A9
:102D100025F9401B41F28831884201D9032062E63F
:102D200031489030006800F002000028EFD1B8F17F
:102D3000010F05D12C48806D20F080502A4988650C
:102D400000BF207800F02000202836D1A069D0B143
:102D500025489830006840F001002349C1F89800E8
:102D6000FFF7FCF8054606E0FFF7F8F8401B0228DD
:102D700001D9032037E61C489830006800F00200B3
:102D80000028F1D019E018489830006820F00100C0
:102D90001549C1F89800FFF7E1F8054606E0FFF78E
:102DA000DDF8401B022801D903201CE60E489830AC
:102DB000006800F002000028F1D1E069002860D02E
:102DC0000948806800F00C000C287FD0E0690228D8
:102DD00058D10548006820F0807003490860FFF76B
:102DE000BDF805460DE00000001002406002002022
:102DF00000700040FFF7B2F8401B022801D9032001
:102E0000F1E54D48006800F000700028F2D1D4E9E7
:102E10000810401E41EA0011A06A41EA0021208EFC
:102E20000122C2EB500041EA40513420005DC2EB68
:102E3000500041EA40612C20005D41EAC0603E49FB
:102E4000C9683E4A114008433B49C86008460068CB
:102E500040F0807008600846C06840F08070C8602C
:102E6000FFF77CF8054606E0FFF778F8401B0228DC
:102E700001D90320B7E53048006800F00070002851
:102E8000F2D056E02C48006820F080702A49086093
:102E90000846C06820F00300C8600846C06828499A
:102EA00008402549C860FFF759F8054607E00DE0DE
:102EB000FFF754F8401B022801D9032093E51E4870
:102EC000006800F000700028F2D132E0E0690128CB
:102ED00000D188E51848C66806F00301206A8142DF
:102EE00025D106F0F001606A401EB1EB001F1ED133
:102EF00006F4FE41A06AB1EB002F18D106F078412C
:102F00002C20005DB1EBC06F11D106F4C001208E02
:102F10000122C2EB5000B1EB405F08D106F0C06166
:102F20003420005DC2EB5000B1EB406F01D00120B6
:102F300059E5002057E50000001002400C809F0179
:102F4000FFFFEEFE0448D0E900305A1C40F10000BB
:102F50000149C1E900207047A801002070B504466E
:102F60002546681EB0F1807F01D301200FE0681E66
:102F70004FF0E02148610F214FF0FF3005F092F94A
:102F800000204FF0E021886107200861002070BD1B
:102F9000704770477047000010B50246002300BF1D
:102FA00092F83C00012801D1022010BD012082F8D6
:102FB0003C0000BF23F0FF00CC6840EA040323F488
:102FC00040708C6840EA040323F480604C6840EA57
:102FD000040323F400600C6840EA040323F48050E7
:102FE0000C6940EA040323F400504C6940EA0403EE
:102FF00023F480400C6B40EA040323F470200C8B14
:1030000040EA0443224C1068A04207D0214C1068CB
:10301000A04203D0204C1068A04204D123F080507D
:10302000CC6940EA04031A4C1068A04207D0194C3E
:103030001068A04203D0184C1068A0421FD123F49E
:1030400070000C8D40EA045323F080700C6A40EA53
:10305000040323F000704C6A40EA04030C4C10682F
:10306000A04207D00B4C1068A04203D00A4C106855
:10307000A04204D123F00050CC6A40EA0403106857
:10308000436400BF002082F83C0000BF00BF8CE713
:10309000002C01400034014000500140704770474F
:1030A0007047000030B502460B4600BF92F83C0066
:1030B000012801D1022030BD012082F83C0000BF70
:1030C000022082F83D001068416810688468134D42
:1030D0001068A84207D0124D1068A84203D0114DC5
:1030E0001068A84203D121F47001586801430E48CA
:1030F00001401868014324F0800498680443106874
:10310000416010688460012082F83D0000BF00200B
:1031100082F83C0000BF00BFCDE70000002C01405A
:1031200000340140005001408FFFFFFD70B50446A0
:103130000E4604223146206803F06FFC2068406C84
:1031400040F400402168486420688068074900EA2C
:103150000105062D08D0B5F5803F05D02068006830
:1031600040F0010021680860002070BD07000100E8
:10317000704710B504460CB9012010BD94F83D000D
:1031800028B9002084F83C00204600F00DF8022009
:1031900084F83D00211D206803F0BEFB012084F867
:1031A0003D000020E9E7000010B586B00446142178
:1031B00001A8FDF765F824492068884230D100BF96
:1031C0002248006E40F40030204908660846006E30
:1031D00000F40030009000BF00BF00BF0846C06C84
:1031E00040F00200C8640846C06C00F00200009085
:1031F00000BF00BF10200190022002900020039029
:1032000004900120059001A91148FEF7AFFD0022AE
:1032100011461920FEF744FF1920FEF731FF11E097
:103220000C49206888420DD100BF0848006E40F468
:103230008020064908660846006E00F48020009051
:1032400000BF00BF06B010BD0044014000100240A6
:1032500000040048004801400146022081F83D007A
:1032600008688068094B00EA0302062A08D0B2F514
:10327000803F05D00868006840F001000B681860C6
:10328000012081F83D000020704700000700010088
:103290002DE9F04104460D4614B90120BDE8F08146
:1032A00094F83D0028B9002084F83C00204600F046
:1032B00047F8022084F83D00206880681F490840D4
:1032C00021688860211D206803F026FB2068D0F863
:1032D0000880206886692068076A286840EA08082C
:1032E00040F203308643A969A86840EA01200643FA
:1032F00040F60C4086434FF2F0008643E969E868E7
:1033000040EA0120064328690001296A40EA0130A9
:10331000064327F0220727F088076969686840EAB2
:10332000011007432068C0F8088020688661206883
:103330000762012084F83D000020AFE7F8BFFEFFE0
:1033400010B586B00446142101A8FCF799FF206847
:10335000B0F1804F29D100BF8048806D40F001005E
:103360007E4988650846806D00F00100009000BF2E
:1033700000BF00BF0846C06C40F00100C8640846AA
:10338000C06C00F00100009000BF00BF032001905E
:10339000022002900020039004900120059001A9D2
:1033A0004FF09040FEF7E2FCD5E06D49206888427E
:1033B00043D100BF6948806D40F0020067498865CD
:1033C0000846806D00F00200009000BF00BF00BF03
:1033D0000846C06C40F00100C8640846C06C00F0AC
:1033E0000100009000BF00BF00BF0846C06C40F065
:1033F0000400C8640846C06C00F00400009000BFE0
:1034000000BF102001900220029000200390049041
:103410000220059001A94FF09040FEF7A7FC402044
:103420000190022002900020039004900220059059
:1034300001A94C48FEF79AFC8DE04B492068884270
:1034400043D100BF4548806D40F004004349886582
:103450000846806D00F00400009000BF00BF00BF70
:103460000846C06C40F00100C8640846C06C00F01B
:103470000100009000BF00BF00BF0846C06C40F0D4
:103480000200C8640846C06C00F00200009000BF53
:1034900000BF881401900220029000200390049045
:1034A0000A20059001A94FF09040FEF75FFC4020F4
:1034B00001900220029000200390049002200590C9
:1034C00001A92A48FEF752FC45E0294920688842B4
:1034D00041D100BF2148006E40F480101F490866AA
:1034E0000846006E00F48010009000BF00BF00BFCF
:1034F0000846C06C40F00400C8640846C06C00F088
:103500000400009000BF00BF00BF0846C06C40F040
:103510000200C8640846C06C00F00200009000BFC2
:1035200000BF04200190022002900020039004902C
:103530000620059001A90B48FEF718FC0420019015
:10354000022002900020039004900320059001A91E
:103550000648FEF70BFC06B010BD0000001002404C
:103560000004004000080048000800400004004833
:103570000050014030B504460D4615B1042D0CD164
:1035800005E001220021206803F036FA10E0012254
:103590000421206803F030FA0AE0012200212068AB
:1035A00003F02AFA01220421206803F025FA00BF63
:1035B00000BF2068006840F001002168086000201A
:1035C00030BD000010B504460248844201D102F02B
:1035D0009DFD10BD940500202DE9F04104460D46E7
:1035E000164600BF94F83C00012802D10220BDE835
:1035F000F081012084F83C0000BF022084F83D00E7
:1036000096B9EB68D5E90012206803F019FC206830
:10361000806920F00C002168886120688069A968B1
:103620000843216888613DE0042E13D1EB68D5E999
:103630000012206803F04CFC2068806920F4406090
:103640002168886120688069A96840EA01202168B2
:10365000886127E0082E12D1EB68D5E900122068B6
:1036600003F053FC2068C06920F00C002168C86199
:103670002068C069A96808432168C86112E0EB6846
:10368000D5E90012206803F05CFC2068C06920F4D2
:1036900040602168C8612068C069A96840EA0120CB
:1036A0002168C861012084F83D0000BF002084F833
:1036B0003C0000BF00BF9AE710B504460CB90120DA
:1036C00010BD94F83D0028B9002084F83C00204645
:1036D00000F00CF8022084F83D00211D206803F062
:1036E0001BF9012084F83D000020E9E77047000045
:1036F00070B504460E4636B1042E0BD0082E10D0FD
:103700000C2E1CD114E02068C06840F00200216833
:10371000C86015E02068C06840F004002168C860F7
:103720000EE02068C06840F008002168C86007E02B
:103730002068C06840F010002168C86000E000BF49
:1037400000BF01223146206803F056F920688068E6
:10375000074900EA0105062D08D0B5F5803F05D0E0
:103760002068006840F0010021680860002070BDFA
:103770000700010010B5044620680069C0F340004E
:10378000D8B12068C068C0F34000B0B16FF002004B
:1037900021680861012020772068806900F003001B
:1037A00018B12046FFF70EFF05E0204600F076F93D
:1037B000204600F061FA0020207720680069C0F3FD
:1037C0008000D8B12068C068C0F38000B0B16FF04D
:1037D000040021680861022020772068806900F4D5
:1037E000407018B12046FFF7EDFE05E0204600F0DE
:1037F00055F9204600F040FA002020772068006943
:10380000C0F3C000D8B12068C068C0F3C000B0B138
:103810006FF0080021680861042020772068C069E3
:1038200000F0030018B12046FFF7CCFE05E020466B
:1038300000F034F9204600F01FFA002020772068BD
:103840000069C0F30010D8B12068C068C0F3001050
:10385000B0B16FF01000216808610820207720685F
:10386000C06900F4407018B12046FFF7ABFE05E0D8
:10387000204600F013F9204600F0FEF900202077E2
:103880002068006900F0010058B12068C06800F0AD
:10389000010030B16FF0010021680861204600F09E
:1038A00037FA20680069C0F3C01058B12068C068BA
:1038B000C0F3C01030B16FF080002168086120466D
:1038C000FFF767FB20680069C0F3002058B120684B
:1038D000C068C0F3C01030B16FF480702168086117
:1038E0002046FFF755FB20680069C0F3801058B1EF
:1038F0002068C068C0F3801030B16FF040002168CC
:103900000861204600F005FA20680069C0F3401005
:1039100058B12068C068C0F3401030B16FF020008B
:10392000216808612046FFF735FB20680069C0F375
:10393000005058B12068C068C0F3005030B16FF437
:103940008010216808612046FFF7A9FB2068006904
:10395000C0F3405058B12068C068C0F3405030B147
:103960006FF40010216808612046FFF797FB20687C
:103970000069C0F3805058B12068C068C0F380501F
:1039800030B16FF48000216808612046FFF788FBA2
:1039900020680069C0F3C05058B12068C068C0F307
:1039A000C05030B16FF40000216808612046FFF775
:1039B000DFFB10BD10B586B00446142101A8FCF74A
:1039C0005FFC3249206888425DD100BF3048C06C3E
:1039D00040F004002E49C8640846C06C00F00400A2
:1039E000009000BF00BF00BF0846C06C40F002005E
:1039F000C8640846C06C00F00200009000BF00BF21
:103A000000BF0846C06C40F00100C8640846C06CA6
:103A100000F00100009000BF00BF0B2001900220C9
:103A200002900020039004900220059001A91948FB
:103A3000FEF79CF9202001900220029000200390C4
:103A400004900620059001A91248FEF78FF9032083
:103A5000019002200290002003900490062005901F
:103A600001A90D48FEF782F94FF440600190022051
:103A700002900020039004900620059001A94FF0C9
:103A80009040FEF773F906B010BD0000002C014015
:103A9000001002400008004800040048704770B55C
:103AA00004460D46164600BF94F83C00012801D19B
:103AB000022070BD012084F83C0000BF022084F881
:103AC0003D000C2E51D005DC4EB1042E1ED0082E28
:103AD0007AD133E0102E60D0142EF9D175E029464A
:103AE000206802F0ABFF2068806940F00800216880
:103AF00088612068806920F004002168886120685E
:103B00008069296908432168886177E0294620682F
:103B100002F0F2FF2068806940F40060216888614B
:103B20002068806920F4806021688861206880694D
:103B3000296940EA0120216888615FE02946206800
:103B400003F03EF82068C06940F008002168C861B1
:103B50002068C06920F004002168C8612068C0693D
:103B6000296908432168C86148E02946206803F0B4
:103B700089F82068C06940F400602168C861206845
:103B8000C06920F480602168C8612068C069296923
:103B900040EA01202168C86130E02946206803F02E
:103BA000D5F82068006D40F008002168086520689D
:103BB000006D20F00400216808652068006D296907
:103BC00008432168086519E017E02946206803F0DA
:103BD000F9F82068006D40F40060216808652068ED
:103BE000006D20F48060216808652068006D2969F7
:103BF00040EA01202168086500E000BF00BF012005
:103C000084F83D0000BF002084F83C0000BF00BFE6
:103C10004FE710B504460CB9012010BD94F83D00E3
:103C200028B9002084F83C00204600F00DF802205E
:103C300084F83D00211D206802F06EFE012084F80A
:103C40003D000020E9E7000008B5094A01689142FB
:103C50000DD100BF0749096E41F40061054A1166A4
:103C60001146096E01F40061009100BF00BF08BD5C
:103C7000002C0140001002407047000070B504465F
:103C80000E4601223146206802F0B6FE194920682E
:103C9000884213D01849206888420FD017492068FD
:103CA00088420BD016492068884207D01549206801
:103CB000884203D014492068884201D1012000E0E5
:103CC000002028B12068406C40F40040216848641E
:103CD000206880680D4900EA0105062D08D0B5F579
:103CE000803F05D02068006840F00100216808602E
:103CF000002070BD002C0140003401400040014014
:103D0000004401400048014000500140070001000C
:103D100070477047014600BF91F87C00012801D12F
:103D200002207047012081F87C0000BF2420C1F8E8
:103D30008000086802680868006820F001000B68CD
:103D4000186022F0005200204866086802602020B7
:103D5000C1F8800000BF002081F87C0000BF00BFD8
:103D6000DFE7704770B504460D4600BF94F87C004D
:103D7000012801D1022070BD012084F87C0000BF21
:103D80002420C4F88000206806682068006820F0BD
:103D90000100216808602068806820F06060284386
:103DA00021688860204603F0EBF820680660202038
:103DB000C4F8800000BF002084F87C0000BF00BF72
:103DC000D9E770B504460D4600BF94F87C00012881
:103DD00001D1022070BD012084F87C0000BF2420A6
:103DE000C4F88000206806682068006820F00100A0
:103DF000216808602068806820F0604028432168BE
:103E00008860204603F0BCF8206806602020C4F8D3
:103E1000800000BF002084F87C0000BF00BFD9E70D
:103E200070477047704700002DE9F047044620684E
:103E3000C569206806682068876805F00F08B8F132
:103E4000000F0FD105F0200060B106F0200010B97E
:103E500007F0805030B1E06E10B12046E16E884727
:103E6000BDE8F087B8F1000F7ED06648384018B939
:103E700006F490700028F7D005F0010058B106F460
:103E8000807040B1012021680862D4F8880040F0B9
:103E90000100C4F8880005F0020058B107F00100E5
:103EA00040B1022021680862D4F8880040F0040084
:103EB000C4F8880005F0040058B107F0010040B1D3
:103EC000042021680862D4F8880040F00200C4F899
:103ED000880005F0080070B106F0200010B94948CC
:103EE000384040B1082021680862D4F8880040F0CA
:103EF0000800C4F88800D4F88800002843D005F0F2
:103F0000200050B106F0200010B907F0805020B119
:103F1000E06E10B12046E16E8847D4F888902068A2
:103F2000806800F04000402802D009F0080020B36B
:103F3000204603F01FF92068806800F04000402808
:103F400017D12068806820F0400021688860A06F49
:103F500058B12D48A16F8863A06FFDF7ABFD90B1FC
:103F6000A06F816B88470EE00EE02046FFF75AFFF6
:103F700009E02046FFF756FF05E02046FFF752FF15
:103F80000020C4F888006BE705F4801050B107F4F6
:103F9000800038B14FF48010216808622046FFF796
:103FA00040FF5DE705F0800058B106F0800010B9D1
:103FB00007F4000028B1206F10B12046216F884718
:103FC0004EE705F0400030B106F0400018B1204641
:103FD00003F0E4F844E705F4000030B106F0804057
:103FE00018B12046FFF71CFF3AE705F0807030B1AA
:103FF00006F0004018B12046FFF7B3FE30E700BFDF
:104000002EE70000010000105D71000810B50446A5
:104010000CB9012010BDA06900B100E000BFD4F8C8
:10402000800028B9002084F87C00204600F02AF89F
:104030002420C4F880002068006820F00100216876
:104040000860204603F0DEF9012800D1E2E7A06A0B
:1040500010B1204602F0CCFF2068406820F4904068
:10406000216848602068806820F02A002168886004
:104070002068006840F0010021680860204603F0D5
:1040800033F8C7E710B586B00446142101A8FCF741
:10409000F7F843492068884231D100BF4148C06DDC
:1040A00040F001003F49C8650846C06D00F00100BE
:1040B000009000BF00BF00BF0846C06C40F0010088
:1040C000C8640846C06C00F00100009000BF00BF4B
:1040D0000C200190022002900020039004900C20FC
:1040E000059001A94FF09040FDF740FE00221146D7
:1040F0005B20FDF7D5FF5B20FDF7C2FF4DE02A49AD
:104100002068884249D100BF2648006E40F48040B4
:10411000244908660846006E00F48040009000BF05
:1041200000BF00BF0846C06C40F00400C8640846E9
:10413000C06C00F00400009000BF00BF00BF084644
:10414000C06C40F00200C8640846C06C00F0020079
:10415000009000BF00BF10200190022002900020BC
:10416000039004900720059001A91048FDF7FEFD7B
:1041700080200190022002900020039004900720EC
:10418000059001A90A48FDF7F1FD002211462520FE
:10419000FDF786FF2520FDF773FF06B010BD000078
:1041A0000080004000100240003801400008004834
:1041B0000004004810B50346D3F88400202874D1C9
:1041C00001B10AB9012010BD00BF93F87C0001289D
:1041D00001D10220F7E7012083F87C0000BF996538
:1041E000A3F85C20A3F85E200020D86600BF986882
:1041F000B0F5805F0AD1186920B940F2FF10A3F82A
:10420000600020E0FF20A3F860001CE0986848B937
:10421000186918B9FF20A3F8600014E07F20A3F804
:10422000600010E09868B0F1805F09D1186918B992
:104230007F20A3F8600006E03F20A3F8600002E0C2
:104240000020A3F8600000BF0020C3F888002220EF
:10425000C3F884001868806840F001001C68A06002
:10426000586EB0F1005F21D1B3F8680090421DDCB8
:104270009868B0F5805F04D1186910B91848D866FD
:1042800001E01848D86600BF002083F87C0000BF1A
:104290001868006840F480701C68206018688068A6
:1042A00040F080501C68A06016E017E09868B0F5F8
:1042B000805F04D1186910B90B48D86601E00B483B
:1042C000D86600BF002083F87C0000BF1868006833
:1042D00040F490701C682060002074E7022072E7B0
:1042E0003172000851730008BF710008E5720008C0
:1042F00010B504460D492068884208D10C49087859
:10430000FCF7DCFE01220A490A48FFF753FF0A497D
:104310002068884208D106490878FCF7CFFE0122C0
:1043200003490648FFF746FF10BD00000038014072
:1043300000000020C8030020008000403C03002053
:104340002DE9F84F04460E4617469946D4F88000EA
:1043500020285DD106B117B90120BDE8F88F00BF54
:1043600094F87C00012801D10220F6E7012084F8AE
:104370007C0000BF0020543460632120E062FDF720
:10438000EDFD824627806780543CA068B0F5805FD1
:1043900004D1206910B90025B04602E035464FF03F
:1043A00000081DE05346002280212046CDF80090F1
:1043B00003F020FF08B10320CFE745B9B8F80000AB
:1043C000C0F308002168886208F1020803E0287839
:1043D000216888626D1CB4F85600401EA4F856008F
:1043E000B4F856000028DDD1534600224021204673
:1043F000CDF8009003F0FEFE08B10320ADE72020C9
:10440000C4F8800000BF002084F87C0000BFA4E74F
:104410000220A2E7704700BFFEE7000010B54FF48E
:104420000061084800F002FF00BF0748006840F044
:1044300040000549086000BFC914024800F0F8FEBA
:1044400010BD000000040048003800407FB505465C
:104450000C466A460E213B2000F0DEF89DF8010074
:104460009DF8001040EA012000B228809DF803006A
:104470009DF8021040EA012000B268809DF8050016
:104480009DF8041040EA012000B2A8809DF80900C0
:104490009DF8081040EA012000B220809DF80B0032
:1044A0009DF80A1040EA012000B260809DF80D00DE
:1044B0009DF80C1040EA012000B2A0807FBD0000F2
:1044C00010B50024FFF7AAFF2DA003F0D3FE75203E
:1044D00000F08AF80446122C04D121462EA003F0E5
:1044E000C9FE0EE0122C0CD0752000F07DF80446B9
:1044F000122C06D01222214630A003F0BBFE012070
:1045000010BD80216B2000F0A9F83220FDF704FCDB
:1045100001216B2000F0A2F83220FDF7FDFB002105
:104520006C2000F09BF83220FDF7F6FB00211920EB
:1045300000F094F83220FDF7EFFB05211A2000F07F
:104540008DF83220FDF7E8FB18211B2000F086F8DB
:104550003220FDF7E1FB18211C2000F07FF832200B
:10456000FDF7DAFB03211D2000F078F83220FDF77B
:10457000D3FB0121382000F071F80020C0E70000D3
:10458000436865636B696E672049434D323036304E
:10459000322E2E2E000000000A49434D32303630B4
:1045A000322077686F5F616D5F69203D203078252C
:1045B0003032782E2E2E4F4B0A0A000049434D32DE
:1045C00030363032204E6F74204F4B3A20307825F1
:1045D0003032782053686F756C64206265203078C3
:1045E000253032780A00000070B504464FF40061AF
:1045F000084800F01BFE44F0800001F073FE00202C
:1046000001F070FE05464FF40061024800F010FE14
:10461000284670BD000400482DE9F04104460D46CF
:10462000164600274FF400610B4800F0FFFD44F0F0
:10463000800001F057FE05E0002001F053FE3946EE
:104640007F1C7054AF42F7D34FF40061024800F072
:10465000EFFDBDE8F08100000004004870B504469D
:104660000D464FF40061084800F0E0FD04F07F00C3
:1046700001F038FE284601F035FE4FF40061024893
:1046800000F0D6FD70BD00000004004810B50446DF
:104690009FED0E0A0E4880ED000A9FED0E0A80ED98
:1046A000010A9FED0D0A80ED020A00EE904AF8EE35
:1046B000600A9FED0A1A60EE810AB0EE600A084BAC
:1046C000084A02F1240100F00FF810BDCDCC4C3E99
:1046D0002C0100200AD7233CCDCCCC3D6F12833A6D
:1046E0001800002020070020F0B52DED068B87B0C4
:1046F000F0EE409A05460F4616461C4694ED000A19
:10470000D4ED010A20EE200AFE4880ED000A94ED67
:10471000000AD4ED020A20EE200AFB4880ED000AD0
:1047200094ED010A20EE000AF84880ED000A94EDAD
:10473000010AD4ED030A20EE200AF54880ED000AB4
:1047400094ED020A20EE000AF24880ED000A94ED92
:10475000020AD4ED030A20EE200AEF4880ED000A99
:1047600094ED030A20EE000AEC4880ED000A94ED77
:10477000010AD4ED020A20EE200AE94880ED000A81
:1047800094ED000AD4ED030A20EE200AE54880EDFE
:10479000000A287DF0B300203FE0002100EE101A4F
:1047A00000BF18E001EB4102DF4B03EB820202EB9A
:1047B000800292ED001A04F17C0202EB8102D2ED3C
:1047C000001AF8EEC00A41EE810AFDEEE00AB0EEF2
:1047D000600A4A1CD1B20329E4DBF8EEC00A04F1F6
:1047E000880101EB8001C1ED000A56F8201000EEAF
:1047F000901AF8EEE00A04F1880101EB800191EDD6
:10480000001A70EEC10A04F1940101EB8001C1EDC0
:10481000000A00E004E0411CC8B20328BDDB11E03F
:1048200000200DE056F8201000EE101AB8EEC00A75
:1048300004F1940101EB800181ED000A411CC8B232
:104840000328EFDBD4ED250A60EEA00A94ED261ACA
:10485000D4ED261A41EE210A94ED271AD4ED271A39
:1048600041EE210AB0EE600A04F0ACFBF0EE408AA3
:10487000F5EEC08AF1EE10FA02D19FEDAC0A03E02A
:10488000F7EE000A80EEA80AB0EE40AA00200EE083
:1048900004F1940101EB800191ED000A20EE280A59
:1048A00004A901EB800181ED000A411CC8B2032874
:1048B000EEDB984890ED000AF0EE000A20EE200AA8
:1048C0009648D0ED000AB0EE001A01EE200AF7EE8D
:1048D000000A30EEC00A84ED040A934880ED000A15
:1048E0008F4890ED000AF0EE000A20EE200A8D4875
:1048F000D0ED000AB0EE001A01EE600A84ED050A60
:10490000894880ED010A824890ED000AF0EE000A25
:1049100020EE200A7C48D0ED000AB0EE001A01EE2D
:10492000200A84ED060A804880ED020A7C4890ED5A
:10493000000AF0EE000A20EE200A7A48D0ED000AC4
:10494000B0EE001A01EE200A84ED070A764880EDE9
:10495000030A6E4890ED000AF0EE000A20EE200AED
:104960006E48D0ED000AB0EE001A01EE200AF7EE14
:10497000000A30EEC00A84ED080A6B4880ED040A94
:10498000654890ED000AF0EE000A20EE200A5D482E
:10499000D0ED000AB0EE001A01EE600A84ED090ABB
:1049A000614880ED050A5A4890ED000AF0EE000AD1
:1049B00020EE200A5448D0ED000AB0EE001A01EEB5
:1049C000600A84ED0A0A584880ED060A524890EDC4
:1049D000000AF0EE000A20EE200A4A48D0ED000A54
:1049E000B0EE001A01EE200A84ED0B0A4E4880ED6D
:1049F000070A464890ED000AF0EE000A20EE200A71
:104A00004448D0ED000AB0EE001A01EE200AF7EE9D
:104A1000000A30EEC00A84ED0C0A434880ED080A13
:104A2000D0ED000A60EEA00A90ED031AD0ED031A53
:104A300041EE210AB0EE600A04F0C4FAB0EE409AEA
:104A4000394890ED000A20EE090A84ED0D0A90ED38
:104A5000030A20EE090A84ED0E0A00201BE056F836
:104A6000201000EE101AB8EEC00A04F1280101EB84
:104A70008001D1ED000A9FED2E1A01EE600ABDEE15
:104A8000C00AB8EEC00A04F1400101EB800181EDDB
:104A9000000A411CC8B20328E1DB002029E0002104
:104AA00000EE101A00BF18E000EB40021E4B03EBB3
:104AB000820202EB810292ED001A04F1400202EB45
:104AC0008102D2ED001AF8EEC00A41EE810AFDEE35
:104AD000E00AB0EE600A4A1CD1B20329E4DBF8EE2A
:104AE000C00A04F14C0101EB8001C1ED000A411C38
:104AF000C8B20328D3DB04F158020E4904F14C007C
:104B00001AE000000001002004010020080100203C
:104B10000C010020100100201401002018010020C9
:104B20001C0100202001002084060020000000005D
:104B3000004075444C00002004F087FA9DED050A02
:104B4000D4ED0C0A20EE200AD4ED0B0A9DED061AD6
:104B500000EEC10AD04880ED000A9DED040AD4EDB4
:104B60000C0A20EE200AD4ED0A0A9DED061A10EE7A
:104B7000810A80ED010A9DED050AD4ED0A0A20EEB6
:104B8000200AD4ED0B0A9DED041A10EE810A80ED87
:104B9000020A00206CE09FEDC10AB4EEC0AAF1EE5B
:104BA00010FA06DC9FEDBE0AB4EEC0AAF1EE10FAD0
:104BB00008D21FED220AB84981ED020A81ED010AEF
:104BC00081ED000AB74901EB800191ED000AB2497D
:104BD00001EB8001D1ED000A9FEDB31AF4EEC10A9A
:104BE000F1EE10FA02D8DFEDB00A13E0AA4901EBAA
:104BF0008001D1ED000A9FEDAD1AF4EEC10AF1EE8D
:104C000010FA02DDDFEDA90A04E0A34901EB8001FF
:104C1000D1ED000A60EEA90AA54991ED001A00EE57
:104C2000810AA04901EB800181ED000A9A4901EB5C
:104C3000800191ED000A9B4901EB8001D1ED000A52
:104C400070EE200A07EB800191ED000A994991ED81
:104C5000001A00EE810A20EE290AF0EE000A80EE2A
:104C6000201A01A901EB800181ED001A411CC8B294
:104C7000032890DB94ED000AD4ED010A9DED011AA2
:104C800000EEC10AD4ED020A9DED021A00EEC10A3F
:104C9000D4ED030A9DED031A00EEC10A84ED000A6B
:104CA00094ED010AD4ED000A9DED011A00EE810A8F
:104CB000D4ED020A9DED031A00EE810AD4ED030A39
:104CC0009DED021A00EEC10A84ED010A94ED000A7E
:104CD000DDED020A20EE200AD4ED010A9DED031A53
:104CE00000EEC10AD4ED020A30EE200AD4ED030A28
:104CF0009DED011A00EE810A84ED020A94ED000A8E
:104D0000DDED030A20EE200AD4ED010A9DED021A22
:104D100000EE810AD4ED020A9DED011A00EEC10AEF
:104D2000D4ED030A30EE200A84ED030AD4ED000A24
:104D300060EEA00A94ED011AD4ED011A41EE210AA9
:104D400094ED021AD4ED021A41EE210A94ED031AF1
:104D5000D4ED031A41EE210AB0EE600A04F032F9F4
:104D6000B0EE408A94ED000A20EE080A84ED000AB5
:104D700094ED010A20EE080A84ED010A94ED020A7E
:104D800020EE080A84ED020A94ED030A20EE080AD8
:104D900084ED030AA87C28B91FED9C0A454880EDE4
:104DA000000A74E0287C50B995ED000A414880ED76
:104DB000000A95ED010A3E4880ED000A67E0B2EE78
:104DC000040A3C4880ED000A1FEDA80A384880ED2F
:104DD000000A314890ED000AB5EEC00AF1EE10FA73
:104DE00002DD90ED000A04E02B4890ED000AB1EEE0
:104DF000400A2948D0ED010AF5EEC00AF1EE10FA9A
:104E000002DDD0ED010A04E02348D0ED010AF1EE05
:104E1000600A30EE200A284880ED000A90ED000A72
:104E2000B5EEC00AF1EE10FA02D81FEDC00A0FE08D
:104E3000214890ED000AF7EE000AB4EEE00AF1EE28
:104E400010FA02DDB7EE000A02E01B4890ED000AFE
:104E5000194880ED000A90ED000ADFED180AB4EE63
:104E6000E00AF1EE10FA0FD2687C68B914480088A5
:104E7000801C1349088008460088B0F5C87F06DD0D
:104E800000200880287402E000200D49088007B047
:104E9000BDEC068BF0BD0000A80600200080844415
:104EA00000006144B4060020CDCCCCBDCDCCCC3DBF
:104EB0005C0100205801002024010020CDCC4C3D95
:104EC0002801002002480078401C01490870704702
:104ED000680100204FF4A570194908609FED190A78
:104EE000084680ED010A9FED180A80ED020A9FED49
:104EF000170A80ED040A9FED160A80ED050A9FED62
:104F0000150A80ED060A9FED140A80ED070A0420B9
:104F1000C8609FED120A084680ED080A9FED0F0A4F
:104F200080ED090A9FED0D0A80ED0A0A9FED0B0A3C
:104F300080ED210A9FED090A80ED220A70470000EA
:104F4000280800206666A63FC3F548407B142E3E25
:104F50005C8F423E0000FA433646713E000000007E
:104F600010B51948008800EE100AB8EE400A17483C
:104F7000D0ED000AB4EEE00AF1EE10FA0BD20022F6
:104F800020214FF09040FCF7E4FF0022042110485C
:104F9000FCF7DFFF0AE0012220214FF09040FCF7F0
:104FA000D8FF012204210A48FCF7D3FF06480088F5
:104FB000401C80B20449088006490988884202DB07
:104FC00000200149088010BD0402002000020020DA
:104FD00000100048FC01002010B504461E4800786F
:104FE00030BB1E48007802281BDC1D4800883C2886
:104FF00003DA012003F00EFD02E0002003F00AFDB9
:105000001748008820441649088008460088C828A8
:1050100021DD0020088011480078401C0F490870ED
:1050200019E000200D49087001200B49087012E0BA
:10503000002003F0EFFC0A4800882044084908805B
:1050400008460088B0F57A7F05DD00200880024917
:1050500008700249087010BD090200200A020020F1
:1050600006020020024602F1600000EB810318688E
:1050700000F0F840704701468868C0F3C0007047F0
:105080000146886800F00100704701468868C0F357
:105090000070704701468868C0F38000704770B5A3
:1050A00000F11404C1F3406504EB85031C68C1F3EF
:1050B00004560725B540AC43C1F3045502FA05F583
:1050C0002C431C6070BD826822F0E0720A4382604B
:1050D000704710B500F1600404EB81031C6824F0F4
:1050E000004414431C6010BD426922F000420A4390
:1050F00042617047F0B503460A46106890FAA0F086
:10510000B0FA80F47BE00125A540106800EA0501B3
:10511000002973D050681D6891FAA1F6B6FA86F698
:1051200077000326BE40B54391FAA1F6B6FA86F69B
:10513000760000FA06F635431D6000BF506801286E
:1051400002D05068022814D190689D6891FAA1F6A7
:10515000B6FA86F677000326BE40B54391FAA1F66B
:10516000B6FA86F6760000FA06F635439D6000BF73
:1051700000BF1069DD6891FAA1F6B6FA86F67700ED
:105180000326BE40B54391FAA1F6B6FA86F676003C
:1051900000FA06F63543DD6000BF506802282DD1C5
:1051A000FF2914D850691D6A91FAA1F6B6FA86F65D
:1051B000B7000F26BE40B54391FAA1F6B6FA86F6BF
:1051C000B60000FA06F635431D6200BF16E05069CE
:1051D0005D6A0E0A96FAA6F6B6FA86F6B7000F26AC
:1051E000BE40B5430E0A96FAA6F6B6FA86F6B600A3
:1051F00000FA06F635435D6200BF00BF641C10680C
:10520000E04000287FF47FAF5068012802D050684A
:10521000022809D1D56810685E68864300FB05F74F
:105220003E435E6000BF00BF0020F0BD816270475A
:105230008161704730B50246012300BF1068C0F39A
:10524000801040BBD1E900042043CC6820430C69A6
:1052500020434C6920438C692043CC6920430C6A6D
:10526000204314684FF6BF75AC43204310604C696F
:10527000886840EA1440546840F60475AC43204303
:105280005060086AB0F5005F04D1486A84B21461C6
:1052900000BF00BF0023D06920F40060D061184631
:1052A00030BD000010B50248FEF7BEFD10BD000085
:1052B0003C03002010B501F065FA012001F050F820
:1052C0000120FFF7E3F90120FBF782FBFFF748FE1F
:1052D00010BD704710B5044603F03AFA10BD10B582
:1052E00004460B20FFF778FE10BD10B50446002CD5
:1052F00000DC10BD204600F0E1FC00BFF9E770B50E
:105300000446002C00DC70BD3225322000F05AFF2C
:1053100000BFF8E75448407830B95348007818B9CE
:105320005148807800287DD050480078401C4F4973
:105330000870084600780A2874DB002008704A4884
:105340004078002842D04A480088401C48490880DC
:1053500000200EE0C11C474A52F8212042490A3180
:1053600031F910100A44C11C424B43F82120411C62
:10537000C8B20328EEDB3E480088322826DB002036
:1053800017E0C11C3B4A52F8211000EE101AB8EE8B
:10539000C00ADFED390A80EE201A384901EB80019E
:1053A00081ED001A0022C11C324B43F82120411C20
:1053B000C8B20328E5DB00202D4908802A48407840
:1053C000012800D100BF00202749487026480078F6
:1053D000012848D12A480088401C294908802548CE
:1053E000006828490968084422490860084640685E
:1053F0002449496808441F49486008468168214893
:105400008068A0F5006008441A49886008468069F1
:105410001549B1F9481008441649886118480088B0
:10542000322800E01FE01EDB002015E0114951F892
:105430002010322291FBF2F100EE101AB8EEC00AF1
:105440000E490C3901EB800181ED000A0021094A67
:1054500042F82010411CC8B20328E7DB00200849AD
:10546000088001490870704708070020F8010020F3
:10547000BA010020A007002000004842F0050020EB
:10548000B80100207007002000B589B0202101A8D4
:10549000FAF7F6FE1C481D4908604FF4403048609A
:1054A00000211A488160C16001614161042181616C
:1054B00000210177012141770162002180F8241049
:1054C000C1620163012180F838100021C16380F8B6
:1054D0004010FCF737F908B1FBF738FB0C48019096
:1054E00006200290002003907F2004900420059065
:1054F0000020069001A90548FBF766FE08B1FBF7FE
:1055000025FB09B000BD0000000100507002002022
:105510000800900C08B500BF1148806C40F00400F2
:105520000F4988640846806C00F00400009000BFBA
:1055300000BF00BF0846806C40F001008864084648
:10554000806C00F00100009000BF00BF00221146F7
:105550000B20FCF7A5FD0B20FCF792FD08BD000019
:105560000010024000B587B0142102A8FAF788FEA7
:1055700000BF4A48C06C40F004004849C86408466F
:10558000C06C00F00400019000BF00BF00BF0846DF
:10559000C06C40F02000C8640846C06C00F02000D9
:1055A000019000BF00BF00BF0846C06C40F0010082
:1055B000C8640846C06C00F00100019000BF00BF45
:1055C00000BF0846C06C40F00200C8640846C06CCA
:1055D00000F00200019000BF00BF00BF0846C06C91
:1055E00040F01000C8640846C06C00F01000019044
:1055F00000BF00BF002220214FF09040FCF7A9FC23
:1056000000224FF400612648FCF7A3FC002204218D
:105610002448FCF79EFC0420029001200390002007
:105620000490059002A91F48FCF7A0FB4FF400501E
:1056300002901D4803900020049002A91B48FCF72B
:1056400095FB2020029001200390002004900590FB
:1056500002A94FF09040FCF789FB4FF400600290E4
:105660000120039000200490059002A90C48FCF74B
:105670007DFB4FF4805002900B4803900020049073
:1056800002A90748FCF772FB002211462820FCF70C
:1056900007FD2820FCF7F4FC07B000BD0010024015
:1056A00000040048001000480000111000080048E5
:1056B00010B51948194908604FF4E13048600021DD
:1056C00016488160C16001610C2141610021816146
:1056D00001620020114988620846FEF797FC08B174
:1056E000FBF734FA00210D48FEF76BFB08B1FBF71E
:1056F0002DFA00210948FEF735FB08B1FBF726FA21
:105700000648FEF707FB08B1FBF720FA012204491F
:105710000248FEF74FFD10BD008000403C03002012
:105720000000002000B591B0282107A8FAF7A8FDD5
:10573000182101A8FAF7A4FD4FF480403C49896D77
:1057400001433B4A91651146896D0140009100BFBC
:1057500000BF02201146C96C0143D1641146C96CD7
:105760000140009100BF00BF0003019002200290A1
:10577000032003900020049005900520069001A9C5
:105780002C48FFF7B7FC4FF48040019002200290B4
:10579000032003900020049002200590052006902D
:1057A00001A92448FFF7A6FC4FF400400190022015
:1057B0000290032003900020049002200590052011
:1057C000069001A91B48FFF795FC002007904FF4B5
:1057D000827008904FF4E060099000200A900B90CE
:1057E0004FF400700C9020200D9000200E900F9030
:1057F0000A20109007A91048FFF71CFD00200E4951
:10580000496821F0100101430B4A516000BF00BFFD
:105810001046406840F008001146486000BF8814F8
:10582000496821F480510143516000BF11B000BDAF
:105830000010024000040048003800401FB500205E
:105840000090019002900390144815490860A92027
:1058500048600021124881604FF6FF71C16000214D
:10586000016141618161FDF784FC08B1FBF76EF9CC
:105870000B48FDF721FF08B1FBF768F90020009005
:105880000120019000200290039000226946044804
:10589000FDF7A2FE08B1FBF759F91FBD0044014016
:1058A0009405002000B597B0002014901590169034
:1058B0001C210DA8FAF7E4FC34216846FAF7E0FC55
:1058C00039483A4908600020486000213748816023
:1058D00040F2E731C1600021016141618161FEF761
:1058E00098F908B1FBF732F9002014901590169042
:1058F00014A92E48FDF7D6FB08B1FBF727F9602065
:105900000D9040F2F3100E9000200F901090119027
:105910001290139000220DA92448FEF7C0F808B198
:10592000FBF714F940F2F3100E9004220DA91F4862
:10593000FEF7B5F808B1FBF709F940F2F3100E9045
:1059400008220DA91948FEF7AAF808B1FBF7FEF8DE
:1059500040F2F3100E900C220DA91448FEF79FF8A8
:1059600008B1FBF7F3F8002000900190029003903B
:1059700004904FF400500590002006900790089086
:105980004FF00070099000200A900B900C9069462F
:105990000648FDF701FB08B1FBF7D8F80348FEF70E
:1059A00009F817B000BD0000002C0140540400208D
:1059B00000B599B0242110A8FAF762FC00200D90E0
:1059C0000E900F9034216846FAF75AFC1F48204980
:1059D00008600020486000211D4881604FF6FF717B
:1059E000C160002101614FF6FF71416100218161B9
:1059F000012010900020119001201290002013909F
:105A0000149015900120169000201790189010A95E
:105A10000F48FDF73DFC08B1FBF798F800200D900A
:105A20000E900F900DA90A48FDF73CFB08B1FBF75B
:105A30008DF8002007900B9069460548FDF7ACFAF9
:105A400008B1FBF783F819B000BD00000050014019
:105A50005405002000B58DB0242104A8FAF710FCED
:105A600000200190029003904FF080401749086099
:105A7000002048600021154881604FF6FF71C16029
:105A80000021016181610120049000200590012026
:105A90000690002007900890099001200A900020AD
:105AA0000B900C9004A90948FDF7F2FB08B1FBF735
:105AB0004DF800200190039001A90448FDF7F2FA87
:105AC00008B1FBF743F80DB000BD000094040020BE
:105AD00000B58DB0242104A8FAF7D2FB0020019074
