:020000040800F2
:10000000B80C0020ED01000819470008C3330008B0
:10001000D5450008FB070008215D0008000000002E
:10002000000000000000000000000000DD480008A3
:10003000250B000800000000B5480008554C0008DA
:10004000070200080702000807020008070200086C
:10005000070200080702000807020008070200085C
:1000600007020008070200080702000881090008CB
:10007000070200080702000807020008070200083C
:10008000070200080702000807020008070200082C
:10009000070200080702000807020008070200081C
:1000A000070200080702000807020008070200080C
:1000B00007020008070200080702000807020008FC
:1000C00007020008070200080702000807020008EC
:1000D00007020008155D0008070200080702000873
:1000E000270B0008070200080702000807020008A3
:1000F00007020008070200080702000807020008BC
:1001000007020008070200080702000807020008AB
:10011000070200080702000807020008070200089B
:10012000070200080702000807020008070200088B
:10013000070200080702000807020008070200087B
:10014000070200080702000807020008070200086B
:10015000070200080702000807020008070200085B
:10016000070200080702000807020008070200084B
:10017000070200080702000807020008070200083B
:10018000070200080702000807020008070200082B
:10019000070200080000000007020008070200082C
:1001A000070200080702000807020008C93E00080D
:1001B00007020008070200080702000807020008FB
:1001C00007020008070200080702000807020008EB
:1001D0000702000807020008DFF80CD000F0D0FA90
:1001E00000480047DD630008B80C0020064880473F
:1001F00006480047FEE7FEE7FEE7FEE7FEE7FEE70C
:10020000FEE7FEE7FEE7FEE7D94C0008D90100084B
:100210002DE9F05F0546002092469B46884606463B
:10022000814640241BE0284641464746224600F0CE
:10023000F0F953465A46C01A914110D31146184658
:10024000224600F0D7F92D1A67EB01084F462246E7
:100250000120002100F0CEF917EB00094E41201ECD
:10026000A4F10104DFDC484631462A464346BDE896
:10027000F09FD2B201E000F8012B491EFBD270477B
:100280000022F6E710B513460A4604461946FFF762
:10029000F0FF204610BD2DE9FE4F804681EA0300A5
:1002A000C00F0C46009021F0004123F00045B8EB50
:1002B0000200A94105D24046214690461C460B4605
:1002C000024623F00040104347D0270DC7F30A0031
:1002D000C3F30A510290401A019040286BDAC3F32D
:1002E000130040F4801B0098924620B10023D2EB0B
:1002F000030A63EB0B0B01985946C0F140025046CC
:1003000000F078F906460D4650465946019A00F02D
:1003100090F910EB08006141002487EA115284EA49
:10032000E7731A4340D0009A62B3019A012A4FEA58
:10033000075215DC001B61EB02014FF0004202EA9C
:100340000752CDE90042001C41F5801132462B4690
:1003500000F0C7F903B0BDE8F08F40462146F9E749
:10036000001B61EB0201001C41F5801300185B418A
:100370002018A2F5001747EB030140EAD570B61923
:100380006D4111E06D084FEA360645EAC0754FEA47
:100390000752001B61EB0201001C41F58011490866
:1003A0004FEA30000019514132462B4603B0BDE8F8
:1003B000F04F00F087B90098012240000023D0EBF5
:1003C000020263EBE073009821464FEAE074B8EB59
:1003D000000061EB0401E9E783F000435BE781F093
:1003E000004158E72DE9FE4F81EA030404F0004480
:1003F00021F0004100944FF0000B23F0004350EA3D
:1004000001045ED052EA03045BD0C3F30A54C1F383
:100410000A552C44A4F2F3340194A0FB0254C1F316
:10042000130141F48011C3F3130343F4801301FB60
:10043000024400FB034E840A970A44EA815447EAC7
:100440008357A4FB076802958D0A05FB07854FEAD1
:10045000932C04FB0C542705029D4FEA065847EAEB
:100460001637B5EB08056EEB070C870E920E47EAC0
:10047000811742EA8312A7FB0201B6EB0B0164EB82
:1004800000042B0D43EA0C335E1844EB1C50DA4693
:100490005146E7FB0201C5F313044FEA0B3343EA6D
:1004A00014534FEA0432019C43EA0603A4F10C04FE
:1004B0000294009CCDE900B400F013F903B0BDE84C
:1004C000F08F00200146F9E70EB5C10F80EAE07019
:1004D0000844CA07002140F233438DE80E000A4663
:1004E0000B4600F0FEF803B000BD0EB540F23341FC
:1004F00002910021CDE900110A460B4600F0F1F807
:1005000003B000BDC1F30A5210B5C1F3130140F2AC
:10051000FF3341F480119A4201DA002010BD40F20D
:1005200033439A42A2F2334203DC524200F071F8A4
:1005300010BD904010BD00F0004230F000400AD0E5
:10054000C10D01F56071C0F3160042EA0151C20805
:1005500040071143704700200146704730B5041E24
:1005600071F1000404DB4FF00044404264EB0101F0
:10057000141E73F1000405DB1C464FF00043524289
:1005800063EB04038B4208BF824230BD30B5041ECA
:1005900071F1000404DB4FF00044404264EB0101C0
:1005A000141E73F1000405DB1C464FF00043524259
:1005B00063EB0403994208BF904230BD01F0004351
:1005C00030B421F0004150EA010206D00A0DA2F534
:1005D0006072C1F31301002A02DC30BC00207047B6
:1005E000440F44EAC104C100E01830BC00EBC25023
:1005F00000F031B8202A04DB203A00FA02F1002092
:1006000070479140C2F1200320FA03F31943904050
:100610007047202A04DB203A21FA02F000217047BB
:1006200021FA02F3D040C2F120029140084319465A
:100630007047202A06DBCB17203A41FA02F043EA42
:10064000E07306E041FA02F3D040C2F1200291408B
:100650000843194670470029A8BF7047401C49004D
:1006600008BF20F00100704710B4B0FA80FC00FA17
:100670000CF050EA010404BF10BC704749B1CCF142
:10068000200421FA04F411FA0CF118BF01212143CE
:100690000843A3EB0C01CB1D4FEA00614FEA102089
:1006A00042BF002010BC704700EBC350104400292B
:1006B000A4BF10BC7047401C490008BF20F00100D7
:1006C00010BC704710B5141E73F1000408DA401C0A
:1006D00041F1000192185B411A4301D120F0010061
:1006E00010BD2DE9F04D92469B4611B1B1FA81F251
:1006F00002E0B0FA80F220329046FFF77BFF04461A
:100700000F4640EA0A0041EA0B0153465A460843A5
:1007100013D0114653EA010019D0C8F140025046E7
:10072000FFF777FF05460E46504659464246FFF70B
:1007300061FF084305D0012004E020463946BDE8AA
:10074000F08D0020054346EAE0762C4337430A98B3
:100750006305E40AA0EB08000022FD0A44EA4754BE
:100760000A3002D500200146E9E701051019694168
:10077000DDE9084500196941BDE8F04DA2E7000038
:10078000064C074D06E0E06840F0010394E80700DE
:1007900098471034AC42F6D3FFF722FDD46C000822
:1007A000F46C000870B58C1810F8015B15F00703A5
:1007B00001D110F8013B2A1106D110F8012B03E0FA
:1007C00010F8016B01F8016B5B1EF9D12B0705D402
:1007D0000023521E0DD401F8013BFAE710F8013B4B
:1007E000CB1A921C03E013F8015B01F8015B521E67
:1007F000F9D5A142D8D3002070BDFEE705489FED92
:10080000040A80ED000A80ED010A80ED020A7047BB
:10081000000000000006002070B5554A0024117841
:100820009FED540A544B09B3F6EE000A40F2DC5532
:1008300001292AD0022937D04FF4C866032941D0B4
:1008400004294DD0FEEE000A052957D0062963D0B1
:10085000092507296ED008297BD0092905D183ED08
:10086000060A83ED070A83ED080A70BD5168084443
:10087000506083ED060A83ED070A83ED080AB0F5A0
:100880007A7FF2DB012054600CE05168084450602C
:1008900083ED060AC3ED070A83ED080AA842E4DBEC
:1008A00002205460107070BD51680844506083EDA0
:1008B000060A83ED070A83ED080A6428F3DB0320A8
:1008C0005460EFE7516808445060C3ED060A83EDB9
:1008D000070A83ED080AB042E5DB04205460E1E733
:1008E00051680844506083ED060A83ED070A83EDE2
:1008F000080A6428D7DB05205460D3E75168084410
:10090000506083ED060AC3ED070A83ED080AA8428A
:10091000C9DB06205460C5E751680844506083ED88
:10092000060A83ED070A83ED080A6428BBDB07206B
:100930005460B7E7516808445060C3ED060A83ED80
:10094000070A83ED080AB042ADDB5460157070BD34
:10095000FFE751680844506083ED060A83ED070AFB
:100960009FED060AB0F57A6F83ED080AEDDAEEE73F
:10097000B80100200000000040070020C3F5C83F78
:10098000014800F021BF0000A40400200D490268C6
:100990008A4201D20C4901E00B492031D2B2142322
:1009A000083AB2FBF3F2436C02F01F0223F0030398
:1009B0001944816404498031C16401219140016579
:1009C0007047000008040240000802400179074A0D
:1009D00002EB81024265054A4432491E826501F0FC
:1009E0001F0201219140C16570470000FC080240D0
:1009F000027862F30701427862F30F21827862F392
:100A00001741C27862F31F61124A00EE101A82ED9C
:100A1000060A037963F30701437963F30F218379AE
:100A200063F31741C37963F31F6100EE101A82ED7F
:100A3000070A037A63F30701437A63F30F21837A8A
:100A4000C07A63F3174160F31F6100EE101A82ED64
:100A5000080A70474007002010B59AB06421684624
:100A6000FFF70EFCAA208DF80000EE208DF80100A3
:100A70002B4800226B4690ED000A10EE100A8DF80C
:100A8000020010EE100A000A8DF8030010EE100AA2
:100A9000000C8DF8040010EE100A000E8DF8050011
:100AA0001F4890ED010A10EE100A8DF8060010EEB6
:100AB000100A000A8DF8070010EE100A000C8DF8DD
:100AC000080010EE100A000E8DF809001448C068E6
:100AD0008DF80A00010A8DF80B10010C8DF80C102E
:100AE000000E8DF80D000E4800698DF80E00010A09
:100AF0008DF80F10010C8DF81010000E8DF81100FC
:100B0000122102201C5C401C2244D2B28842F9DB34
:100B10005A541846491C03F0E3FE1AB010BD0000F9
:100B2000A0080020704710B54FF4805000F022FF5D
:100B3000BDE810404FF4005000F01CBF2DE9F0411B
:100B40004FF080420021536A1CB2324B1D68DFF81F
:100B5000C8C02EB2DCF80050DFF8C0E02DB26D4204
:100B6000DEF8247051623FB27F421960CCF8001069
:100B7000CEF82410FFF7B9FC9FED291B53EC112B85
:100B8000FFF730FCFFF71AFD00EE904ADFED261A62
:100B900000EE100AB8EEE01A2548DFED262AC1EE75
:100BA000210A80EE801ADFED210A21EE201ABDEE27
:100BB000C11A80ED161A01EE105AB8EEC12A82EE63
:100BC000221A81EE002A22EE201ABDEEC11A80ED13
:100BD000151A01EE106AB8EEC12A82EE211A9FEDB5
:100BE000162AC1EE001A21EEA01ABDEEC11A80ED40
:100BF000141A01EE107AF8EEC11A81EE821AC1EED3
:100C0000001A21EEA00ABDEEC00A80ED170ABDE869
:100C1000F0810000240400402408004000500140FE
:100C20008DEDB5A0F7C6B03E0008E8460000704262
:100C3000400700200060EA4600F0D24670470000FE
:100C400010B53D4C9FED3D0A3D48DFED3E1A04F5E1
:100C500098712DED028BD4ED060A20EE801AD4EDAA
:100C6000070A20EE800AD4ED080AD4ED040AC1EE8A
:100C7000208A9FED351A80EE208AD0ED110A94ED7E
:100C8000080A4CF2503003F049FD206800EE100ACB
:100C90004042B8EEC01A00EE100A04F59870F8EE63
:100CA000C00A90ED0B0A00F0ABF938EEC81A80EDDF
:100CB0000B0A71EE400AFDEEE00A10EE902A226364
:100CC000206841428A4201DC0A4602E0824200DD9D
:100CD000024678EE881A226371EE800AFDEEE00A81
:100CE00010EE902A62638A4201DC0A4602E08242E8
:100CF00000DD024671EEC00A6263FDEEE00A10EE0E
:100D0000902AA2638A4201DC0A4602E0824200DDA8
:100D1000024631EE000AA263BDEEC00A10EE102AB0
:100D2000E2638A4201DC084602E0824200DC1046AF
:100D3000E063BDEC028B10BD400700200000704254
:100D40003C0600200000FA440000C84270B580490B
:100D50002DED068B91ED140AB8EEC02A91ED150A1F
:100D6000F8EEC01A91ED160AF8EEC00A91ED170AD6
:100D7000B8EEC01A32EE210A30EE200A30EE013A07
:100D800091ED050AF8EEC03AC3EE232A9FED713AC1
:100D900071EEC21AB8EEC04AB8EEC00A01F5B074DE
:100DA00031EEA02A71EEE00A32EE412A70EE810A9D
:100DB00080EE801AF6EE000AC2EE833AD1ED042AE4
:100DC00081EE030A62EEA33AC1ED093AC2EE043A9B
:100DD00022EE800A83EE832A22EE822A81ED0A2AFD
:100DE00091ED011AD1ED021A21EE201A01EEA01A9E
:100DF000C0EE010AC1ED0B0A91ED090A84ED000A6B
:100E000091ED0A0A544984ED010A91ED110A534902
:100E100084ED020A91ED390AB1EE408A84ED058A2B
:100E2000FFF763FB9FED4E1B53EC112BFFF7DAFA34
:100E3000FFF7C4FB0546DFED4C0A88EE200ADFED24
:100E40004B0A20EE208AFFF776FB41EC190B18EED7
:100E5000100AFFF770FB41EC100B05F0B5FCB0EE8B
:100E600040AA94ED010AF0EE60AA10EE100AFFF716
:100E700062FB53EC1A2BFFF7B5FA41EC1A0B18EE94
:100E8000100AFFF758FB41EC100B05F05FFCD4EDA6
:100E9000000A20EE200A10EE100AFFF74CFB53EC7C
:100EA0001A2BFFF7F8F953EC192BFFF79BFA41ECDB
:100EB000190BE068FFF73FFB53EC192BFFF7EBF939
:100EC000FFF77CFBE0602846FFF735FB41EC190B90
:100ED00018EE100AFFF72FFB41EC100B05F036FC63
:100EE000D4ED010A20EE200A10EE100AFFF723FBD2
:100EF00041EC1A0B18EE100AFFF71DFB41EC100B2A
:100F000005F062FCB0EE408A94ED000AF0EE608AD3
:100F100010EE100AFFF70FFB53EC182BFFF762FAE5
:100F200053EC1A2BFFF7B7F953EC192BFFF75AFACA
:100F300041EC180B2069FFF7FEFA53EC182BFFF772
:100F4000AAF9FFF73BFB2061BDEC068B70BD0000EA
:100F500040070020000070423C06002044000020B2
:100F60008DEDB5A0F7C6B03E00003443DB0F49401D
:100F700070B5164C217869B101290FD1144A6178F6
:100F80005054491CC8B260700D2807D3002319467D
:100F9000451E08E0AA2801D10120207070BD565CD2
:100FA000491C3344DBB2A942F9DB104410F8010CB0
:100FB000984207D10648FFF71BFD20214FF09040D3
:100FC00000F0C0FD00202070607070BD04000020A3
:100FD000440500204FF0E020416982694069891A88
:100FE0004FF47A725143B1FBF0F004498A684FF430
:100FF0007A71A2FB011240187047000048010020DE
:10100000B4EEE00AF1EE10FA02D8B0EE600A7047D2
:10101000B4EEC10AF1EE10FAF9DDB0EE410A704704
:101020002DE9F84F00270446009790F85800DFF8A4
:1010300018840D46B946012811D0012684F858605D
:10104000206802F059FE60B1E06D40F02000E065DC
:101050005FF0010784F858903846BDE8F88F022009
:10106000FBE7D5E900210C23206803EA911318441B
:10107000036B01F01F014FF01F0C0CFA01FCC2F3CF
:10108000846223EA0C038A4013430363206802F05E
:1010900033FE8246206802F02BFE5AEA00003CD163
:1010A000AA6829682068B2F1004F37D002F028FE04
:1010B0002068416921F00041416120686969C26886
:1010C000C2F3C102520091402A69042A31D000EBD8
:1010D00082002B68026EDFF874C303F0F84302EA63
:1010E0000C020B431A4342F00041016620682A6952
:1010F000A96900EB8200026E22F080720A43026648
:10110000297F22682869012910D0002102EB800084
:10111000026E22F000720A4302667DE0002202F0B5
:10112000EFFD2068416941F00041C5E74FF00071D3
:10113000ECE7002102F0D6FD400320684FF00001EB
:1011400072D002F0CFFD90FAA0F0B0FA80F12868DA
:1011500042036ED090FAA0F0B0FA80F0814204D140
:1011600000221146206802F0DAFD0121206802F019
:10117000B9FD400320684FF001015DD002F0B2FDDF
:1011800090FAA0F0B0FA80F12868420359D090FAA2
:10119000A0F0B0FA80F0814204D100220121206841
:1011A00002F0BDFD0221206802F09CFD4003206892
:1011B0004FF0020148D002F095FD90FAA0F0B0FA8D
:1011C00080F12868420344D090FAA0F0B0FA80F091
:1011D000814204D100220221206802F0A0FD0321F7
:1011E000206802F07FFD400320684FF0030133D0F8
:1011F00002F078FD90FAA0F0B0FA80F1286842037E
:101200002FD090FAA0F0B0FA80F0814204D10022F1
:101210000321206802F083FD2068816811F0010F2E
:1012200022D0ACE000E004E002F05CFDC0F3846199
:101230008DE7C0F3846091E702F054FDC0F3846150
:10124000A2E7C0F38460A6E702F04CFDC0F384611E
:10125000B7E7C0F38460BBE702F044FDC0F38461EC
:10126000CCE7C0F38460D0E72A7B296850F8B03F10
:10127000C1F3120C23EA0C0302F0180C744A22FA90
:101280000CF20A4013430360E968414577D12868AE
:1012900041031CD090FAA0F1B1FA81F1491C01F090
:1012A0001F0109294FEA403132D8002912D000BF6E
:1012B00090FAA0F1B1FA81F101F1010101F01F01F1
:1012C00006FA01F609D100BFC0F3846109E0C0F35A
:1012D0008461E3E7C0F38461EEE790FAA0F1B1FA2C
:1012E00081F101F1010101F01F0146EA816102D1A2
:1012F000C0F3846003E090FAA0F0B0FA80F000F14F
:10130000010000F01F0000EB400041EA005132E014
:1013100000290ED090FAA0F1B1FA81F101F101019A
:1013200001F01F0106FA01F606D100BFC0F3846187
:1013300006E0C0F38461F1E790FAA0F1B1FA81F11F
:1013400001F1010101F01F0146EA816102D1C0F300
:10135000846003E090FAA0F0B0FA80F000F10100A0
:1013600000F01F003B4A00EB400002EB005041EA56
:10137000000141F00071AA68206802F0C1FC364803
:101380002B6803423FF466AE21684FF0A04C33480F
:10139000334E344D614501D0A94201D1024600E0EF
:1013A00032469268DFF8C08002F0E072434503D015
:1013B000DFF8B880434520D15FEA02281DD461459B
:1013C00006D02B4B99427FF445AEA94200D030465F
:1013D00042F40001826822F0E0720A4382602548EC
:1013E00025490068B0FBF1F000EB4000800000E010
:1013F000401E00900028FBD12CE6DFF8808043459A
:101400000FD15FEAC2180CD4A94202D11C4B9942F9
:10141000F2D0614502D0A94200D0304642F080713E
:101420000CE0DFF860804345E6D15302E4D4A942E2
:10143000E2D0614500D0304642F48001826822F05B
:10144000E0720A43826005E600007F4000F0FF037F
:10145000FFFF0700000020FE00000880000300508E
:101460000007005000010050000021C31000C09090
:1014700000060050D8010020400D0300000052C7B4
:1014800000050050000084CBF8B54FF000050400C3
:101490002E46009502D0E06D10B107E00120F8BDA6
:1014A000204600F00BF9266684F8586020688168B1
:1014B000C1F3407119B18168744A1140816020689C
:1014C0008168C1F3007179B98168714A114041F0B6
:1014D000805181606F4870490068B0FBF1F000E016
:1014E000401E00900028FBD120688168C1F3007184
:1014F00041B9E16D41F01001E165216E41F001015A
:101500002166012502F0F8FBE16DC90600D430B177
:10151000E06D40F01000E06501252846F8BDE06D63
:1015200020F4807040F00200E0652068816811F0CE
:10153000010F27D14FF0A043584A984201D0904262
:1015400004D19968966801F001010AE0544989685C
:10155000544E01F00101B66806F001063143524EC7
:10156000B66806F0010631430CD1984201D0904292
:1015700001D14E4800E04E486168826822F47C1236
:101580000A438260E168E06B627F0843A16841EA38
:101590004231084394F8241040EA0140012904D163
:1015A000218D444A02EB41410843E16A29B101F42B
:1015B0007871226B014342EA01002268D1683E4BF8
:1015C00019400143D16020680169626B21F04061DC
:1015D00011430161206802F08FFB0646206802F08B
:1015E00087FB06432ED1207F94F83810800340EA11
:1015F00041022168C86844F2020398431043C8605E
:1016000020690028206801690AD041F48031016115
:10161000206850F8C01F22696FF30D01114307E0E5
:1016200021F480310161206850F8C01F6FF30D0173
:10163000016094F8400001280CD02068016921F075
:1016400001010161606901282068016B21F00F012F
:1016500011D013E0D4E911010843D4E91312114366
:10166000084321680A6940F2FC739A43104340F032
:1016700001000861E6E7226A521E11430163E06D32
:1016800020F0020040F00100E06546E7C0FFFF5F88
:10169000C0FFFF7FD8010020400D03000001005073
:1016A00000040050000500500006005000030050E8
:1016B000000700500000FEFF0740F0FF70B586B045
:1016C000054614216846FEF7DBFD1D49286888425F
:1016D00033D11C49C86C40F40050C864C86C00F495
:1016E00000500590C86C40F00100C864C86C00262A
:1016F00000F001000590402000900320CDE9010694
:1017000069464FF0904000F041F9104C0E482060BF
:101710002420C4E901068020C4E903604000606120
:10172000C000A0612020C4E90706204600F0AAF806
:1017300008B1FFF783FA6C65A56206B070BD0000C2
:10174000000100500010024008000240A4040020E4
:1017500070B590F82520002401212346022A07D0E5
:101760000422C26380F8251080F82430012429E087
:101770000268156825F00E0515600268156825F0E9
:1017800001051560826C156825F48075156090F868
:101790004420056C02F01F0201FA02F26A60D0E9EF
:1017A00013255560426D32B1156825F480751560BA
:1017B000D0E91625556080F8251080F82430816B1B
:1017C00001B18847204670BDF0B4016C0C68016817
:1017D0000D6890F8442002F01F06042202FA06F376
:1017E000234211D06B070FD50B689B0603D40B68FF
:1017F00023F004030B6090F8441001F01F018A40AD
:10180000016C4A60016B1DE0022303FA06F72742D0
:101810004FF0000C4FF0010218D0AF0716D50C683E
:10182000A40605D40C6824F00A040C6080F8252076
:1018300090F8441001F01F018B40016C4B6080F860
:1018400024C0C16A00291AD0F0BC08470823B3405D
:10185000234214D02B0712D50B6823F00E030B6024
:1018600090F84410036C01F01F0102FA01F1596075
:10187000C26380F8252080F824C0416BE2E7F0BC09
:101880007047000070B504000CD02B4A216814206A
:10189000914209D2294A0A44B2FBF0F08000606408
:1018A00027480AE0012070BD234A52420A44B2FB95
:1018B000F0F080006064204808382064022084F83A
:1018C00025000A6847F6F0708243D4E90203184302
:1018D000D4E904352B431843A3691843E36918433B
:1018E000236A1843104308602046FFF74FF8A068AA
:1018F0000025B0F5804F00D16560A16C20790860AB
:10190000D4E9130141606068401E032808D82046CE
:10191000FFF75CF8606D0560D4E91601416002E0F4
:101920006565A565E565E563012084F8250084F813
:101930002450002070BD000008040240F8FFFDBFE5
:101940000000024070B5044600F008F90546601C2E
:1019500002D004484068044400F000F9401BA04253
:10196000FAD370BDCC010020B0F5805F01D102F048
:101970007FB97047044910B50A68024202D0086076
:10198000FFF7F2FF10BD0000140401402DE9F84FED
:10199000DFF890B1002301274FF0030A4FF00F0941
:1019A0000BF1040EB6E000BF07FA03F6324070D028
:1019B0004C68022C01D0122C10D1DC0800EB8408FA
:1019C000D8F820405D074FEAD56C09FA0CF5AC4316
:1019D0000D6905FA0CF52543C8F82050D0F80080B1
:1019E0005D0091F804C00AFA05F40CF0030C28EA33
:1019F00004080CFA05FC4CEA080CC0F800C0D1F849
:101A000004C0BCF1010F08D0BCF1020F05D0BCF13D
:101A1000110F02D0BCF1120F16D1D0F808C0D1F8C6
:101A20000C802CEA040C08FA05F848EA0C08C0F807
:101A30000880D0F804C02CEA060C0E79C6F3001614
:101A40009E4046EA0C064660C668A6438C68AC40D9
:101A50003443C4604C68E4005BD5334C256E45F0DC
:101A600001052566246E23F0030504F001040094AB
:101A70002E4C2E19B4689D074FEA157C09FA0CF517
:101A8000AC43B0F1904F05D0294DA84204D10125B7
:101A900017E03EE0002514E0264DA84201D10225C2
:101AA0000FE0254DA84201D103250AE0234DA842AD
:101AB00001D1042505E0224DA84201D1052500E011
:101AC000062505FA0CF52543B560DBF800405D46B8
:101AD0004E689443F60300D514432C60DEF80040B2
:101AE00075464E689443B60300D514432C600D4DE3
:101AF00008352C684E689443F60200D514432C60D8
:101B0000084D0C352C684E689443B60200D514433A
:101B10002C605B1C0A6832FA03F47FF445AFBDE821
:101B2000F88F000000040140001002400000014056
:101B30000004004800080048000C0048001000485D
:101B40000014004842690A4201D0816270478161F5
:101B500070470AB1816170478162704701488068AF
:101B600070470000CC01002002488168426811449F
:101B700081607047CC01002010B50024032000F0E4
:101B800073F8002000F008F808B1012401E000F02B
:101B900025F8204610BD000070B50E4E0546002405
:101BA000706898B14FF47A71B1FBF0F00A49096896
:101BB000B1FBF0F000F0ACFD40B9102D06D20022D0
:101BC0002946501E00F030F8356000E00124204620
:101BD00070BD0000CC010020D80100200A4882B06E
:101BE000016E41F001010166016E01F001010091F9
:101BF000816D41F080518165806D00F080500090D2
:101C000002B000F0A1B8000000100240002809DB7B
:101C100000F01F02012191404009800000F1E02006
:101C2000C0F8001170470000F0B40E4B1B680C4662
:101C3000C3F30223C3F10705042D00D90425191DA0
:101C4000072901D2002300E0DB1E012606FA05F178
:101C5000491E214099409E40761E16403143F0BCFB
:101C600004F070B80CED00E0064900F007020868C7
:101C70004FF6FF03184040EA0220034A1043086071
:101C8000704700000CED00E00000FA052B492C4BDA
:101C90000A6832214A432B4940B1B0F5007F0868F9
:101CA00029D020F4C06040F480602CE00868C0F3C4
:101CB0004120022804D051F8800F20F4807022E0E7
:101CC000D1F8800020F48070C1F88000086820F40A
:101CD000C06040F400700860B2FBF3F0401C00E00C
:101CE000401E4A69520501D50028F9D148694005CE
:101CF0000AD503207047C0F34120022806D051F8CE
:101D0000800F40F48070086000207047D1F8800098
:101D100040F48070C1F88000086820F4C06040F48E
:101D200000700860B2FBF3F0401C00E0401E4A69FE
:101D30005205DBD50028F9D1D8E70000D8010020F2
:101D400040420F00007000400248816821F40051B9
:101D500081607047007000402DE9F8430446006838
:101D60000026BB4D00035ED5A86D0027C00008D437
:101D7000A86D40F08050A865A86D012700F0805044
:101D80000090DFF8D092D9F8001041F48071C9F8C2
:101D90000010FFF7E3FE804606E000BFFFF7DEFE1F
:101DA000A0EB080002282BD8D9F80000C005F5D513
:101DB000D5F8900010F4407014D0216D814211D0FC
:101DC000D5F89000D5F8901020F4407041F480319F
:101DD000C5F89010D5F8901021F48031C5F8901016
:101DE000C5F89000C00711D0FFF7B8FE804641F259
:101DF000883907E0FFF7B2FEA0EB0801494501D999
:101E000003260BE0D5F890008007F3D5D5F89000B5
:101E1000216D20F440700843C5F890001FB1A86DF3
:101E200020F08050A8652078C00707D0D5F888003A
:101E3000616820F003000843C5F888002078800717
:101E400007D5D5F88800A16820F00C000843C5F834
:101E500088002078400707D5D5F88800E16820F091
:101E600030000843C5F888002078000707D5D5F86A
:101E70008800216920F0C0000843C5F88800207858
:101E8000C00607D5D5F88800616920F44070084382
:101E9000C5F888002078800607D5D5F88800A169A4
:101EA00020F440600843C5F888002078400607D534
:101EB000D5F88800E16920F440500843C5F888004F
:101EC0002078000607D5D5F88800216A20F4404024
:101ED0000843C5F888002088C00507D5D5F88800D4
:101EE000616A20F440300843C5F888002068800308
:101EF00007D5D5F89C00A16A20F003000843C5F877
:101F00009C002088800507D5D5F88800E16A20F478
:101F100040200843C5F88800208840050FD5D5F833
:101F20008800216B20F440100843C5F88800206B1E
:101F3000B0F5801F03D1E86840F48010E860208885
:101F400000050FD5D5F88800616B20F440000843E8
:101F5000C5F88800606BB0F5800F03D1E86840F4E5
:101F60008010E8602088C0040FD5D5F88800A16BE8
:101F700020F040700843C5F88800A06BB0F1807F66
:101F800003D1E86840F48010E86020884FF00061D9
:101F900080040ED5D5F88800E26B20F04060104335
:101FA000C5F88800E06B884203D1E86840F48010EF
:101FB000E860208840040ED5D5F88800226C20F017
:101FC00040601043C5F88800206C884203D1E8685F
:101FD00040F48010E860208800040FD5D5F8880010
:101FE000616C20F040500843C5F88800606CB0F187
:101FF000805F03D1E86840F48030E8602068C00367
:102000000FD5D5F88800A16C20F040400843C5F8F2
:102010008800A06CB0F1804F03D1E86840F48030B4
:10202000E860206840030FD5D5F89C00E16C20F4EF
:1020300040100843C5F89C00E06CB0F5001F03D1C8
:10204000E86840F48010E8603046BDE8F88300009E
:1020500000100240007000402DE9F0470E460500D8
:102060004FF0000725D0DFF8AC81D8F8000000F071
:102070000F00B0420CD2D8F8001021F00F0131430C
:10208000C8F80010D8F8000000F00F00B04210D1DE
:102090002968614CC80741F2883A5AD06868DFF86D
:1020A0007C91032808D0022820682DD04005002804
:1020B0002CDB0120BDE8F08720688001F9D5E068BD
:1020C00000F00302E068C0F30310401C032A19D09B
:1020D000534A00BFB2FBF0F0E268C2F3062250435D
:1020E000E268C2F34162521C5200B0FBF2F0484574
:1020F00017D9A06810F0F00F0CD0880711D5A86888
:1021000040B10EE0474AE5E78003D0E700F0B6F8BB
:10211000484506D9A06820F0F00040F08000A0609B
:102120008027A068696820F003000843A060FFF7DB
:1021300015FD814606E000BFFFF710FDA0EB090189
:1021400051453AD8A068696800F00C00B0EB810FE7
:10215000F2D12868810714D5400703D5A06840F460
:10216000E060A0602878000705D5A06820F46050E2
:1021700040F4E060A060A068A96820F0F000084387
:1021800004E0802F03D1A06820F0F000A060D8F810
:102190000010404601F00F01B14216D9016821F04C
:1021A0000F0131430160FFF7D9FC074607E000BF8C
:1021B000FFF7D4FCC11B514501D903207AE7D8F8B9
:1021C000000000F00F00B042F2D12878400705D59A
:1021D000A068E96820F4E0600843A0602878000760
:1021E00006D5A068296920F4605040EAC100A060CB
:1021F00000F044F8A1680C4AC1F30311515C01F0EE
:102200001F01C8400949086009480068BDE8F04757
:10221000FFF7C2BC002002400010024000B4C4041A
:102220000024F40000366E01BC6C0008D8010020C8
:10223000CC0100200548064900688968054AC1F3B9
:102240000221515C01F01F01C8407047D8010020F5
:1022500000100240CC6C00080548064900688968F7
:10226000054AC1F3C221515C01F01F01C84070470B
:10227000D801002000100240CC6C0008184910B5AD
:102280008868C0F381021748012A0BD08A68164B70
:10229000C2F38102022A06D08A68C2F38102032AAD
:1022A00003D0002010BD184610BDCA6802F0030418
:1022B000CA68C2F30312521C032C02D0B0FBF2F026
:1022C00001E0B3FBF2F0CA68C968C2F306225043CA
:1022D000C1F34161491C4900B0FBF1F010BD0000A1
:1022E000001002400024F40000366E012DE9F8438E
:1022F00004007AD02078FA4DC00747D0A868E96872
:1023000000F00C0001F003010C2802D0082817D0BF
:1023100001E0032914D06068B0F5803F17D0B0F514
:10232000A02F286817D020F480302860286820F477
:10233000802028606068E0B1FFF710FC064614E0DA
:102340002868800322D560680028D2D01EE0286863
:1023500040F48030EDE740F480202860F7E700BFCC
:10236000FFF7FCFB801B642870D828688003F7D532
:102370000CE0FFF7F3FB064605E000BFFFF7EEFBBE
:10238000801B6428F0D828688003F7D42078800761
:102390004CD5A868E96800F00C0001F003010C2896
:1023A00002D004280DD001E002290AD0E0680028FC
:1023B00028682BD040F480702860FFF7CFFB0646DA
:1023C00019E02868400502D5E068002891D06868C7
:1023D000217C20F0FE4040EA01606860C14800684E
:1023E000FFF7DAFB002800D120E076E1FFF7B6FB2B
:1023F000801B0228B8D828684005F7D56868217C7A
:1024000020F0FE4040EA016068600FE020F4807038
:102410002860FFF7A3FB064605E000BFFFF79EFB21
:10242000801B0228A0D828684005F7D42078000730
:1024300029D560690028D5F8940013D040F0010038
:10244000C5F89400FFF78AFB064606E090E000BF5F
:10245000FFF784FB801B022886D8D5F894008007FC
:10246000F6D510E020F00100C5F89400FFF776FBE8
:10247000064604E0FFF772FB801B022878D8D5F8E7
:1024800094008007F6D42078400761D5A86D002617
:10249000C00008D4A86D40F08050A865A86D012642
:1024A00000F08050009090480168C90511D401687F
:1024B000804641F480710160FFF750FB074604E05D
:1024C000FFF74CFBC01B022852D8D8F80000C0050B
:1024D000F6D5A068012815D00528D5F8900016D0AB
:1024E00020F00100C5F89000D5F8900020F004001D
:1024F000C5F89000A06841F28838B8B1FFF72EFB0C
:1025000007460EE0D5F8900040F00100F0E740F0FB
:102510000400C5F89000F5E7FFF720FBC11B41451B
:1025200026D8D5F890008007F6D50CE0FFF716FB0B
:10253000074604E0FFF712FBC11B414518D8D5F848
:1025400090008007F6D41EB1A86D20F08050A865D9
:102550002078800629D5A0690028D5F8980013D0E6
:1025600040F00100C5F89800FFF7F8FA064606E0CB
:1025700077E000BFFFF7F2FA801B022877D8D5F882
:1025800098008007F6D510E020F00100C5F898000B
:10259000FFF7E4FA064604E0FFF7E0FA801B0228A2
:1025A00065D8D5F898008007F6D4E069F0B3A9683B
:1025B000C1F38101032961D00228286820F08070CE
:1025C00028600BD0E86820F00300E860E86847491D
:1025D0000840E860FFF7C2FA04464BE0FFF7BEFA96
:1025E000064604E0FFF7BAFA801B02283FD82868A5
:1025F0008001F7D4F4E908016FF00F0202EB01113A
:102600000843218A5204490802EB4151A26841EA79
:1026100002210843217D4FF07E42490802EB4161CF
:102620000843217B40EAC160E96800E062E0304A8B
:1026300011400843E860286840F080702860E8682E
:1026400040F08070E860FFF789FA044605E000BFBB
:10265000FFF784FA001B022809D828688001F7D503
:1026600048E004E0FFF77AFA001B022802D90320B1
:10267000BDE8F88328688001F4D43BE00128F7D056
:10268000E868226A00F00301914226D1616A00F0F5
:10269000F0020901103991421FD1A26A00F4FE41F3
:1026A000B1EB022F19D194F82C2000F07841B1EB56
:1026B000C26F12D1218E00F4C00249084905A1F56C
:1026C0000011914209D194F8341000F0C06049081B
:1026D0004906A1F1007181420CD00120C8E7000039
:1026E00000100240CC01002000700040FFFFEEFE11
:1026F0000C809F010020BBE70448D0E90212491C6E
:1027000042F10002C0E902127047000048010020B7
:1027100010B5401EB0F1807F01D3012010BD4FF0F5
:10272000E02460610F21601703F00CFB0020A06122
:1027300007202061002010BDF0B590F83C20012A50
:1027400058D0012280F83C20CA688B6822F440727D
:102750001A434B6822F480621A430B6822F4006229
:102760001A430B6922F480521A434B6922F4005237
:102770001A430B6B22F480421A430B8B22F4702213
:1027800042EA03421C4C036800271C4D1C4EA34226
:1027900003D0AB4201D0B34205D1D1F81CC022F026
:1027A000805242EA0C02A34203D0AB4201D0B342B2
:1027B0001BD1B1F828C022F4700242EA0C52D1F8C1
:1027C00020C022F0807242EA0C02D1F824C022F02C
:1027D000007242EA0C02A34203D0AB4201D0B342E2
:1027E00003D1C96A22F000520A435A6480F83C704F
:1027F0000020F0BD0220F0BD002C0140003401405B
:102800000050014070B590F83C20012A27D00125E6
:1028100080F83C50022280F83D2003685A689E6888
:10282000104CA34205D0104CA34202D00F4CA3423F
:1028300003D122F470044A6822430D4C22400C68F4
:102840008968144326F0800211435C60026891603D
:1028500080F83D50002180F83C10084670BD0220F1
:1028600070BD0000002C01400034014000500140C8
:102870008FFFFFFD10B504460068042202F0B1FA94
:102880002068416C41F40041416420688168064A37
:102890001140062906D0B1F5803F03D0016841F010
:1028A00001010160002010BD07000100022180F835
:1028B0003D1001688A68084B1A40062A06D0B2F516
:1028C000803F03D00A6842F001020A60012180F8CB
:1028D0003D10002070470000070001002DE9F04185
:1028E0000D46040003D094F83D0018B108E0012023
:1028F000BDE8F081002084F83C00204600F03CF860
:10290000022084F83D00206881681A4A11408160E5
:10291000211D206802F0EEF9226890689169166A1C
:102920002B68AF69034340F20330814341EA07213A
:10293000A868EF6908434FF6FC418843E96840EA1C
:102940000720014328692F6A000140EA0730084345
:1029500069686D6926F0AA0646EA05152943936061
:102960002268906120680162012084F83D00002007
:10297000BEE70000F8BFFEFF2DE9F04387B0044634
:1029800014216846FDF77CFC226800245649032781
:1029900002254FF09040B2F1804F2CD0534B40268F
:1029A000DFF84C819A4242D18A6D42F002028A6578
:1029B0008A6D02F002020592CA6C42F00102CA64FA
:1029C000CA6C02F001020592CA6C42F00402CA64A9
:1029D000C96C01F00401059110210091CDE9015469
:1029E0006946CDE90345FEF7D1FF0096CDE90154D4
:1029F0006946404647E08A6D42F001028A658A6D69
:102A000002F001020592CA6C42F00102CA64C96C6C
:102A1000009701F001010591CDE901540121CDE9B3
:102A200003416946FEF7B2FF07B0BDE8F083314BC2
:102A3000DFF8C4909A4229D18A6D42F004028A6577
:102A40008A6D02F004020592CA6C42F00102CA6467
:102A5000CA6C02F001020592CA6C42F00202CA641A
:102A6000C96C01F00201059199140091CDE901545E
:102A70000A21CDE903416946FEF788FF0096CDE9BA
:102A8000015469464846CDE90345CBE71B488242DD
:102A9000CAD1086E40F480100866086E00F48010F9
:102AA0000590C86C40F00400C864C86C00F00400D5
:102AB0000590C86C40F00200C864C86C042600F0A1
:102AC000020000960590CDE901540620CDE90340AF
:102AD00069464046FEF75AFF0096CDE90154CDE91C
:102AE0000347694648469DE7001002400004004045
:102AF0000008004800080040000400480050014061
:102B000010B50446006891B1042904D001220021C7
:102B100002F05AF9206801225FF0040102F054F932
:102B20002068016841F001010160002010BD012210
:102B30000021F3E7F0B587B0044614216846FDF79D
:102B40009FFB26492068884245D12548C16C41F049
:102B50000401C164C16C01F004010591C16C41F034
:102B60000201C164C16C01F002010591C16C41F028
:102B70000101C164C06C022500F0010005900B202A
:102B800000900024CDE90154164F69463846CDE93E
:102B90000345FEF7FBFE20200090CDE901540626F8
:102BA000CDE9034669463846FEF7F0FE0320009063
:102BB000CDE90154CDE9034669460B48FEF7E6FE30
:102BC00070020090CDE90154CDE9034669464FF00B
:102BD0009040FEF7DBFE07B0F0BD0000002C014086
:102BE00000100240000800480004004870B5044688
:102BF00090F83C000D4601280ED0012684F83C6078
:102C0000022084F83D000C2A45D007DC5AB1042A82
:102C10001BD0082A78D12CE0022070BD102A4ED09B
:102C2000142A71D15DE0206802F0E8F8206881691B
:102C300041F0080181612068816921F0040181610E
:102C4000206881692A69114311E0206802F02CF99B
:102C50002068816941F4006181612068816921F403
:102C600080618161206881692A6941EA022181616C
:102C70004AE0206802F068F92068C16941F0080163
:102C8000C1612068C16921F00401C1612068C16986
:102C90002A69114311E0206802F0A6F92068C16991
:102CA00041F40061C1612068C16921F48061C161A2
:102CB0002068C1692A6941EA0221C16124E02068D3
:102CC00002F0E2F92068016D41F008010165206819
:102CD000016D21F0040101652068016D2A6911432D
:102CE00011E0206802F00CFA2068016D41F40061E7
:102CF00001652068016D21F4806101652068016D26
:102D00002A6941EA0221016584F83D60002084F8C7
:102D10003C0070BD10B5040003D094F83D0010B124
:102D200007E0012010BD002084F83C00204600F0A0
:102D30000DF8022084F83D00211D206801F0DAFF23
:102D4000012084F83D00002010BD000008B5006897
:102D50000649884208D10648016E41F400610166C7
:102D6000006E00F40060009008BD0000002C0140DF
:102D70000010024010B504460068012202F024F859
:102D80001248216881420ED0114881420BD011486F
:102D9000814208D01048814205D01048814202D0BB
:102DA0000F48814203D1486C40F4004048642068D9
:102DB00081680C4A1140062906D0B1F5803F03D046
:102DC000016841F001010160002010BD002C0140AC
:102DD00000340140004001400044014000480140EF
:102DE000005001400700010090F87C10012918D024
:102DF000012180F87C102421C0F8801050F8601B5D
:102E00000A680B6823F001030B6022F000510022D6
:102E1000426050F8603C1960202101620277104640
:102E2000704702207047704770B5044690F87C00E8
:102E300001281DD0012084F87C002420C4F88000E3
:102E400020680568026822F001020260206882683A
:102E500022F060620A438260204602F08FF9206807
:102E600005602020C4F88000002084F87C0070BD3C
:102E7000022070BD70B5044690F87C0001281DD07A
:102E8000012084F87C002420C4F8800020680568B4
:102E9000026822F0010202602068826822F060422B
:102EA0000A438260204602F069F92068056020200C
:102EB000C4F88000002084F87C0070BD022070BD42
:102EC00070477047704700002DE9F04103680446E1
:102ED000D8691A68996810F00F0F4FF0000569D093
:102EE0005E4E02F490770E4037437DD0C70709D07D
:102EF000D70507D501271F62D4F8883043F00103B6
:102F0000C4F8883083070AD5CB0708D02768022386
:102F10003B62D4F8883043F00403C4F88830430798
:102F20000AD5CB0708D0276804233B62D4F8883041
:102F300043F00203C4F8883003070CD502F02003E5
:102F4000334308D0266808233362D4F8883043F02E
:102F50000803C4F88830D4F88830002B3CD08006B1
:102F600009D502F0200001F08051084303D0E16E42
:102F700009B120468847D4F8880021688968490645
:102F800001D400072AD5204602F0C8F920688168DC
:102F900049061ED5816821F040018160A06FC0B153
:102FA0002F498163A06FFEF7D3FB002814D0A06FD8
:102FB000816B0AE0860617D502F0200601F08057E3
:102FC0003E4311D0E16E24E02046BDE8F0410847C1
:102FD0000AE02046FFF776FFBDE8F0812046FFF7C4
:102FE00071FFC4F88850F7E7C60209D54E0207D52D
:102FF0004FF4801018622046BDE8F041FFF761BF32
:10300000060609D502F0800601F400010E4303D044
:10301000216F0029D8D1DFE741060DD551060BD528
:103020001968204621F0400119602021C4F8801061
:10303000256700F0C5F9CFE7010206D5510004D598
:103040002046BDE8F041FFF73BBFC001C4D5002AD0
:10305000C2DA2046BDE8F041FFF7E5BE01000010EE
:103060000753000810B5040003D0D4F8800010B155
:1030700007E0012010BD002084F87C00204600F00D
:1030800027F82420C4F880002068016821F001019D
:103090000160204602F054FA0128EBD0A06A10B17A
:1030A000204602F09DF82068416821F4904141607B
:1030B0002068816821F02A0181602068016841F060
:1030C000010101602046BDE8104002F0EDB80000AB
:1030D00070B586B0044614216846FDF7D1F8314A30
:1030E0002168002430480225914221D1C16D41F070
:1030F0000101C165C16D01F001010591C16C41F093
:103100000101C164C06C694600F0010005900C200B
:103110000090CDE90154CDE903404FF09040FEF717
:1031200035FC002211465B20FEF77EFD5B2035E07A
:103130001E4A914234D1016E41F480410166016E14
:1031400001F480410591C16C41F00401C164C16C7E
:1031500001F004010591C16C41F00201C164C06C31
:10316000072600F00200059010200090CDE90154E0
:10317000CDE9034669460E48FEF708FC8020009022
:10318000CDE90154CDE9034669460A48FEF7FEFB46
:10319000002211462520FEF747FD2520FEF736FDCB
:1031A00006B070BD008000400010024000380140B1
:1031B000000800480004004870B5D0F88430202B87
:1031C0006DD1B9B1B2B190F87C30012B67D0012339
:1031D00080F87C308165A0F85C20A0F85E2000219A
:1031E000C16683684FF48056FF24B34207D1036958
:1031F00013B11CE0012070BD40F2FF131DE07F25DC
:103200009BB1B3F1805F15D0A0F86010C0F88810B2
:103210002223C0F8843003689C6844F001049C6059
:10322000436EB3F1005F0ED027E0036943B9A0F805
:103230006040EBE703691BB13F23A0F86030E5E78E
:10324000A0F86050E2E7B0F86830934215D8826881
:10325000B24201D1026972B1124AC26680F87C1092
:1032600001680A6842F480720A600068816841F06F
:10327000805181600FE00C4AEFE78268B24201D1D1
:10328000026952B1094AC26680F87C100068016880
:1032900041F490710160002070BD054AF3E70220FF
:1032A00070BD0000A1540008A1530008415400085B
:1032B0004153000870B5044600680D490D4D884221
:1032C00007D12878FDF754FE012229460A48FFF766
:1032D00073FF0A492068884209D12878FDF748FE23
:1032E000BDE87040012203490548FFF765BF70BD86
:1032F0000038014006000020D80200200080004075
:103300004C0200202DE9F8430446D0F880001F4607
:1033100016460D46202851D1DDB1D6B194F87C0077
:1033200001284BD0012084F87C004FF00008C4F83D
:1033300088802120C4F880001834FEF70FFCA6878F
:103340008146E68754F8100C183CB0F5805F03D036
:1033500004E00120BDE8F883206910B12E46002565
:1033600010E000260EE08021204602F0A1FCB8B952
:10337000C6B116F8010B21688862B4F85600401EE9
:10338000A4F85600B4F856004B464FF000020097E0
:103390000028E8D14FF04001204602F089FC30B10E
:1033A0000320D7E735F8020BC0F30800E3E720203D
:1033B000C4F8800084F87C800020CBE70220C9E7B5
:1033C0007047FEE702480068C0F300307047000015
:1033D0001004004800B591B028216846FCF750FF62
:1033E00018210AA8FCF74CFF05494FF400608862D9
:1033F000044A136843F040031360886111B000BDB4
:1034000000040048003800401CB504466A46062106
:10341000432000F03DF9BDF8000040BA2080BDF81F
:10342000020040BA6080BDF8040040BAA0801CBD14
:103430003FB50C4605466A460E213B2000F028F9B0
:10344000BDF8000040BA2880BDF8020040BA68808C
:10345000BDF8040040BAA880BDF8080040BA20803A
:10346000BDF80A0040BA6080BDF80C0040BAA080E8
:103470003FBD00002DE9FC410027FFF7ABFF58A03E
:1034800002F050FC752000F0F3F8014612280CD031
:10349000752000F0EDF80146122809D0122256A03E
:1034A00002F040FC0120BDE8FC815EA002F03AFC85
:1034B00080216B2000F004F93220FEF743FA01214D
:1034C0006B2000F0FDF83220FEF73CFA00216C2062
:1034D00000F0F6F83220FEF735FA0021192000F04E
:1034E000EFF83220FEF72EFA05211A2000F0E8F856
:1034F0003220FEF727FA18211B2000F0E1F83220D5
:10350000FEF720FA18211C2000F0DAF83220FEF72E
:1035100019FA03211D2000F0D3F83220FEF712FA29
:103520000121382000F0CCF83220FEF70BFA46A03B
:1035300002F0F8FB4FF4FA752846FEF703FA454C03
:103540000026A76067602760FFF73CFFA0B10097E7
:1035500068460197FFF758FFBDF900002168761C07
:1035600008442060BDF90200616808446060BDF94C
:103570000400A1680844A060AE42E5DB206890FB2F
:10358000F5F16068494290FBF5F2A068524290FB69
:10359000F5F0434284E80E002FA002F0C3FB208820
:1035A000C0F30721132000F08BF82178142000F0DD
:1035B00087F8A088C0F30721152000F081F8217951
:1035C000162000F07DF82089C0F30721172000F0B5
:1035D00077F8217A182000F073F8002063E70000E4
:1035E000436865636B696E672049434D32303630FE
:1035F000322E2E2E0000000049434D32303630323C
:10360000204E6F74204F4B3A20307825303278208E
:1036100053686F756C64206265203078253032788D
:103620000A0000000A49434D3230363032207768B4
:103630006F5F616D5F69203D203078253032782ED4
:103640002E2E4F4B0A0A00006B656570207175695C
:1036500065740A00C00100206779726F2062696199
:10366000733A2025642025642025640A00000000A8
:1036700010B5064C4FF40063A36240F0800001F0E7
:103680001BF9002001F018F9A36110BD00040048E7
:10369000F0B50A4E4FF4006417460D460023B4629D
:1036A00040F0800001F008F904E0002001F004F986
:1036B000F8545B1CAB42F8D3B461F0BD0004004881
:1036C00030B5074C4FF400630D46A36200F07F0055
:1036D00001F0F2F8284601F0EFF8A36130BD0000D8
:1036E000000400480E499FED0D0ADFED100A81ED40
:1036F000000A9FED0C0A0F4A81ED010A9FED0A0AAC
:103700000B4B81ED020A00EE100A02F1240104487D
:10371000B8EE400A20EE200A00F00EB8CDCC4C3EA8
:103720002C0100200AD7233CCDCCCC3D6F12833A2C
:1037300044000020540600202DE9F04FDFF8648497
:1037400006462DED048BF0EE408A87B0D3ED001ACB
:10375000D3ED010A40461C4621EEA00A17468946D1
:1037600088ED030A93ED020A21EE801A88ED041A0F
:1037700020EEA01A88ED051A93ED031A20EE812A97
:1037800088ED062A20EE002A88ED072A20EE012A7D
:1037900020EE800A88ED082A21EE012A88ED092A08
:1037A00080ED0A0A21EE810A88ED0B0A307DFE4D7C
:1037B00098B300200022114601EB410305EB83037F
:1037C00003EB800300EE102AD3ED000A04EB810323
:1037D000B8EEC00A93ED1F1A491CC9B201EE200AC7
:1037E0000329BDEEC00A10EE102AE5D300EE102A20
:1037F00004EB8001B8EEC00A81ED220A57F82020C0
:10380000401C00EE902AC0B20328F8EEE00A30EE29
:10381000C00A81ED250ACDD30EE0FFE757F820104E
:1038200000EE101A04EB8001401CB8EEC00AC0B2D2
:10383000032881ED250AF1D394ED250A60EE000AF4
:1038400094ED260A40EE000A94ED270A40EE000AA5
:10385000B0EE600A02F0F4FFB7EE001A9FEDD38AD3
:10386000B5EEC00AF1EE10FA02D1B0EE489A01E0CE
:1038700081EE009A0020694604EB8002D2ED250A11
:1038800001EB8002401C60EE800AC0B20328C2ED4A
:10389000000AF1D3D8ED073AF0EE000A98ED092AB4
:1038A00023EEA00A404602EE200A31EE400A84EDE3
:1038B000040A85ED000A98ED0A0AD8ED0B2A20EEDD
:1038C000200AF0EE401A02EEA00A42EEE01AC4ED21
:1038D000051AC5ED011AD8ED061A90ED043A61EE0D
:1038E000A01AB0EE614A43EE601A03EE204A84ED5E
:1038F000064A85ED024A84ED070A85ED030A90ED3C
:10390000050A60EE202AB0EE620A43EEA02A02EE1B
:10391000200A31EE400A84ED080A85ED040A90ED94
:10392000080A20EE202A98ED030AB0EE424A00EE83
:10393000202A00EE604A31EE620A84ED094A85EDE4
:10394000054AC4ED0A1AC5ED061A84ED0B2A85ED69
:10395000072A84ED0C0A85ED080A95ED000AD5EDDD
:10396000030A20EE000A00EEA00A02F069FFD5ED7E
:10397000000A002060EE800AC4ED0D0AD5ED030AAE
:1039800020EE800A84ED0E0ADFED890A57F8201038
:1039900000EE101A04EB8001401CB8EEC00A91ED55
:1039A0000A1AC0B2032801EE600ABDEEC00AB8EEE2
:1039B000C00A81ED100AE9D30020002200EB400389
:1039C000114605EB830300BF03EB810700EE102ACD
:1039D000D7ED000A04EB8107B8EEC00A97ED101A84
:1039E000491CC9B201EE200A0329BDEEC00A10EE3F
:1039F000102AE9D300EE102A04EB8001401CB8EE37
:103A0000C00AC0B2032881ED130AD6D3654904F178
:103A100058026C3104F14C0002F030FF9DED010AB8
:103A200094ED0C2A94ED0B1ADDED021A60EE020AF9
:103A30005D4FDFF880A1243741EE610A5E4B002024
:103A400045464FF40E1EC7ED000AD4ED0A0A0DF1EB
:103A50000C0B07F10C0260EEA12ADDED001A21EE3D
:103A6000211A41EEC22A00EE601AC7ED012AF6EED5
:103A7000002A87ED021A98ED020AD8ED011A00BF5C
:103A800019EE101A5144714505D987ED028A87ED68
:103A9000018A87ED008A07EB800102EB800CD1EDF3
:103AA000000A9CED001A10EE901A994202D39FED85
:103AB000432A0AE010EE901ADFF80481414502DD46
:103AC0009FED402A01E0B0EE602A09EB800122EE72
:103AD000282A02EE001A8CED001A30EE811AD1ED80
:103AE000000A0BEB8001401C41EE210AC0B2032802
:103AF00060EEA80A60EEA20AC1ED000AC0D394EC01
:103B0000020ADDED032A94ED021A9DED042AD4ED9C
:103B1000031A00EEE20A9DED053A01EE420A01EEBB
:103B2000C30A40EE220A60EE023A41EE030A41EE79
:103B3000C20A40EEC33A20EE033A00EE823A33EE78
:103B4000811A01EEA21A01EE623A73EE211A84EC98
:103B5000040A20EE000A00EEA00A01EE010A01EEBE
:103B6000A10A02F06DFED4ED000A60EE800AC4EDF9
:103B7000000AD4ED010A60EE800AC4ED010AD4ED1A
:103B8000020A60EE800AC4ED020AD4ED030A20EEB8
:103B9000800A84ED030AB07CC0B3307CB8B3B2EEC7
:103BA000040A11E00C000020A8050020000000001D
:103BB0000040754400009FBBCDCCCCBDCDCCCCBD6E
:103BC000CDCCCC3DCDCCCC3D85ED010A85ED028A36
:103BD000D7ED000AF5EEC00AF1EE10FA01DCF1EEC5
:103BE000600A97ED010AB5EEC00AF1EE10FA01DCA9
:103BF000B1EE400A30EE800A85ED0C0AB5EEC00A3F
:103C0000F1EE10FA14D8B0EE480A18E000E006E031
:103C100085ED018A07B0BDEC048BBDE8F08F96ED11
:103C2000000A85ED010A96ED010A85ED020AF1E729
:103C300010EE100AB0F17E5F01DDB7EE000A10EE63
:103C4000101A0A4A002085ED0C0A914201DA717CB3
:103C500009B12880DEE72988891C89B22980B1F55D
:103C6000C87FD7D928803074D4E70000CDCC4C3D34
:103C700002480178491C017070470000480100208B
:103C800012484FF4A5719FED120A016080ED010A00
:103C90009FED100A042180ED020A9FED0F0A80EDCE
:103CA000030A9FED0E0A80ED040A9FED0D0A4161A3
:103CB00080ED060A80ED070A80ED080A00F5B07075
:103CC00080ED030A80ED040A7047000040070020E1
:103CD0000AD7233EB81E853E0000FA433646713EA1
:103CE0000000000000EB8100006E00F0F84070471B
:103CF0008068C0F3C00070478068C0F380007047E0
:103D0000042303EAD15310B518444369C1F30451A5
:103D100007248C40A3438A401343436110BD00EB4A
:103D20008100016E21F00041114301667047F0B53A
:103D30000A68032492FAA2F2B2FA82F30F257BE01A
:103D4000324601269E40324075D0D1F804E0066824
:103D500092FAA2F7B7FA87F74FEA470C04FA0CF782
:103D6000BE4392FAA2F7B7FA87F77F000EFA07FE72
:103D700046EA0E0606604E68012E01D0022E15D1CD
:103D8000D1F808E0866892FAA2F7B7FA87F74FEA07
:103D9000470C04FA0CF7BE4392FAA2F7B7FA87F77A
:103DA0007F000EFA07FE46EA0E068660D1F810C0C4
:103DB000C66892FAA2F7B7FA87F77F0004FA07FEFF
:103DC00092FAA2F7B7FA87F77F0026EA0E060CFAF6
:103DD00007FC46EA0C06C6604E68022E2BD1FF2A6D
:103DE00014D84E69076A92FAA2FCBCFA8CFC4FEA1E
:103DF0008C0C05FA0CFC92FAA2F2B2FA82F2920052
:103E000027EA0C0796403743076214E04F69466A79
:103E1000120A92FAA2FCBCFA8CFC4FEA8C0C05FA4E
:103E20000CFC92FAA2F2B2FA82F2920026EA0C0696
:103E300097403E4346625B1C0A681646DA407FF4B0
:103E40007FAF4A68012A01D0022A07D1CB684168B6
:103E50003246914306FB03F2114341600020F0BD5E
:103E600010B503680122C3F3801333BBD1E90023EB
:103E70001A43D1E9033423431A434B691A438B692C
:103E80001A43CB691A430B6A1A4303684FF6BF748F
:103E9000A3431A430260426840F604739A434B6995
:103EA00042EA13428B681A4342600A6AB2F5005F25
:103EB00002D1898C89B201610022C16921F40061BB
:103EC000C161104610BD00000148FEF7FDBF0000B3
:103ED0004C020020704702F087B9704710B50028E7
:103EE0000EDD00F079FB074C6068411C6160192809
:103EF00006DB20214FF09040FDF724FE002060609B
:103F000010BD00004801002010B500280BDD322054
:103F1000FCF782FCFCF7A0FDBDE81040012202493D
:103F20000248FFF749B910BD060000204C020020EE
:103F30002DE9F0433D4B18465978057819B915B964
:103F40009878002870D03A4A1078401CC0B210709F
:103F50000A2869D300243548DFF8D89014705838FF
:103F600069B39188491C8FB29780002100EB8106CC
:103F700003EB4108D6F80CC0B8F90A80491CC444C8
:103F8000C9B2C6F80CC00329F0D3322F17D30021D1
:103F90009FED290A4FEA090700EB810607EB810C28
:103FA000D6ED030A491CC9B2F8EEE00A032980EEF7
:103FB000801A8CED041AF460EED394805C70012DAD
:103FC00032D15188491C8DB2184955806831066834
:103FD0000F68322D3E44066046684F683E44466096
:103FE000866889683144A1F500618160B3F9486051
:103FF00081693144816117D300214D465FF032065B
:1040000050F8217097FBF6F700EE107A05EB810768
:10401000B8EEC00A87ED010A40F82140491CC9B238
:104020000329EDD354801C70BDE8F0833C060020CA
:1040300094010020040500200000484230B589B0FA
:1040400020216846FCF71CF9164815490024016038
:104050004FF44031C0E90114C46004250461C0E993
:104060000545047701214177016280F82440C4624C
:10407000046380F83810C46380F84040FDF704FA08
:10408000094800900620CDE901047F200594CDE980
:10409000030569460348FCF7C3FF09B030BD0000C3
:1040A00000010050E00100200800900C2DE9F043D1
:1040B00087B014216846FCF7E3F83048C16C41F042
:1040C0000401C164C16C01F004010591C16C41F0AF
:1040D0002001C164C16C01F020010591C16C41F067
:1040E0000101C164C16C01F001010591C16C41F095
:1040F0000201C164C06C4FF0904800F002000590CE
:10410000002220214046FDF724FDDFF874904FF493
:104110000067002239464846FDF71BFD194DB800DF
:10412000CDE900050024694602941748FDF72EFCEE
:10413000202000900126CDE90164694640460394A1
:10414000FDF724FC0097CDE90164694648460394D5
:10415000FDF71CFC3003CDE9000569460294484692
:10416000FDF714FC002211462820FDF75DFD2820F4
:10417000FDF74CFD07B0BDE8F083000000100240E1
:10418000000400480000111000080048124810B553
:10419000104901604FF4E1314160002181600C223F
:1041A000C160C0E90412816101628162FEF75AFFB9
:1041B00000210948FEF75EFE00210748FEF734FEA5
:1041C0000548FEF711FEBDE81040012203490248F0
:1041D000FEF7F2BF008000404C02002006000020E5
:1041E0002DE9F04391B0282106A8FCF749F81821E1
:1041F0006846FCF745F82F484FF48049816D41F43B
:1042000080418165816D01F480411091C16C41F064
:104210000201C164C06C022500F0020010904FF44E
:1042200000500024CDE9000503260527CDE90264EE
:10423000DFF88480CDE9044769464046FFF777FD03
:10424000CDF80090CDE9015603AA694682E8B00096
:104250004046FFF76CFDA8038DE8610003AA69469C
:1042600082E8B0004046FFF762FD4FF48270CDE96E
:1042700006404FF4E060CDE908042802CDE90A4089
:104280002020CDE90C040A20CDE90E400B4C06A9F4
:104290002046FFF7E5FD606820F010006060606870
:1042A00040F008006060606840F48050606011B0C9
:1042B000BDE8F083001002400004004800380040D0
:1042C00030B597B00024149415941C2168461694B8
:1042D000FBF7D6FF342107A8FBF7D2FF2848274970
:1042E00001601021C0E9011440F2E731C0E9031474
:1042F00044618461FEF70EFD1494159414A92048BE
:104300001694FEF77FFA6020009040F2F315CDE995
:1043100001540394049405940022694618480694B5
:10432000FEF764FC0422694615480195FEF75EFC21
:104330000822694612480195FEF758FC0C2269468E
:104340000F480195FEF752FC0794089409944FF426
:1043500000500A94CDE90B400D9400030E94CDE972
:104360000F401194129407A905481394FEF7E4F93D
:104370000348FEF7DFFB17B030BD0000002C014002
:104380006403002010B59AB024216846FBF778FF3B
:10439000002416941794342109A81894FBF770FF91
:1043A00014481349C0E900144FF6FF71C0E90241F7
:1043B000C0E9044184610120CDE90004CDE9020493
:1043C0000494CDE90540079469460A480894FEF72D
:1043D00085FA1694179416A906481894FEF712FA4F
:1043E000109409A903481494FEF7A6F91AB010BD59
:1043F000005001406404002010B58CB024216846B0
:10440000FBF73EFF0024124809940A944FF08041C4
:104410000B94C0E900144FF6FF71C0E9024104613A
:1044200084610120CDE90004CDE902040494CDE9C2
:1044300005400794694606480894FEF74FFA099428
:1044400009A903480B94FEF7DDF90CB010BD00007C
:10445000A403002010B58CB024216846FBF710FFA0
:104460000024124809940A940F490B94C0E90014DF
:104470004FF6FF71C0E90241046184610120CDE97A
:104480000004CDE902040494CDE90540079469468F
:1044900006480894FEF722FA099409A903480B94E8
:1044A000FEF7B0F90CB010BD00040040E40300209A
:1044B00010B58CB024216846FBF7E2FE00241248B8
:1044C00009940A940F490B94C0E900144FF6FF7148
:1044D000C0E90241046184610120CDE90004CDE915
:1044E00002040494CDE905400794694606480894FF
:1044F000FEF7F4F9099409A903480B94FEF782F931
:104500000CB010BD0008004024040020134810B572
:10451000114901604FF4E1314160002181600C22BA
:10452000C160C0E904128161C161016241628162BE
:10453000FEF798FD00210948FEF79CFC0021074882
:10454000FEF772FC0548FEF74FFCBDE81040012263
:1045500003490248FEF730BE00380140D80200206F
:104560000600002070B518480024017899B1491E52
:10457000017000F00FFB012000F0C8F90120FFF7E7
:10458000B1F81248417819B9017809B9807810B1A9
:104590000F49012008740C4D15F11005FCF71AFDA8
:1045A00004EB440305EB830291685668411AB1425B
:1045B00004D3906055F8232008469047641CE4B269
:1045C000052CEBD3002070BD480100203C060020E4
:1045D0002C010020FEE7000070B506462DED028B91
:1045E000FCF7ACFAFCF72CFB3046FCF7AFFB474C72
:1045F00094ED140AF8EEC00A94ED0C0AB8EEC00A65
:104600009FED438AF0EE481ADFED428A04F1700113
:104610003046B0EE681A00F081F804F17005B7EE8C
:10462000001A95ED0B0AFFEE000AFCF7E9FC85ED98
:104630000B0A94ED150AF0EE481AB0EE681AF8EE7F
:10464000C00A94ED0D0A04F1A0013046B8EEC00A8C
:1046500000F064F895ED170AB7EE001AFFEE000AB5
:10466000FCF7CEFC85ED170A94ED160AF0EE481A19
:10467000B0EE681AF8EEC00A94ED0E0A04F1D0010B
:104680003046B8EEC00A00F049F895ED230AB7EEBF
:10469000001AFFEE000AFCF7B3FC85ED230A94ED47
:1046A000170AF0EE481AB0EE681AF8EEC00A94ED58
:1046B0000F0A04F580713046B8EEC00A00F02EF8FB
:1046C00095ED2F0AB7EE001AFFEE000AFCF798FCF2
:1046D00085ED2F0AD5ED0B0AB1EE400AF1EE600A26
:1046E000C4ED180AD5ED170AF1EE600AC4ED190AF7
:1046F000D5ED230AF1EE600AC4ED1A0A84ED1B0A17
:10470000BDEC028BBDE8704000F04ABA40070020C3
:104710000000FA440000C8427047000010B50C4683
:104720002DED048BF0EE409A00EE100AB0EE618A97
:10473000F0EE418AB8EE400AB0EE609A10EE100A30
:10474000FBF7F9FE9FED310B53EC102BFBF74AFE04
:10475000FBF734FF02EE100AB5EEC02AF1EE10FAB4
:1047600002D1DFED2C2A03E0B7EE000AC0EE022AE8
:1047700039EEC90AB1EE681A84ED030AD4ED050AD0
:10478000B4EEC10AF1EE10FA09D9B4EEE80AF1EE7E
:1047900010FA02DDB0EE681A01E0B0EE401AF1EE58
:1047A000481A41EE020AC4ED050AF4EEE10AF1EE00
:1047B00010FA09D9F4EEC80AF1EE10FA02DDF0EEB3
:1047C000481A01E0F0EE601AC4ED051AD4ED040AAF
:1047D00070EE600A60EEA20AC4ED060A94ED001ABB
:1047E00094ED012A21EE001A02EE211AD4ED021AEC
:1047F00001EEA01AD4ED0B0A71EE200AC4ED0B0AEB
:1048000084ED040ABDEC048B10BD00008DEDB5A055
:10481000F7C6B03E00000000DFED210A214A9FEDFF
:10482000220A9FED221A002101EB410002EB001049
:10483000491CC0ED000A80ED010A80ED021A80EDEE
:10484000030A80ED040A80ED050A80ED060A80ED7A
:10485000070A80ED080A80ED090A80ED0A0A80ED5A
:104860000B0A0429E0DB0F48DFED110AC030C0ED70
:10487000000A80ED010AC0ED020A80ED030A80ED16
:10488000040A80ED050A80ED060A80ED070A80ED36
:10489000080A80ED090A80ED0A0A80ED0B0A7047CC
:1048A00062BE3C39B007002000000000ACC5A7384C
:1048B000CDCC4C3F7047000007498A68C2F34002E4
:1048C000002AFAD00873886810F0010FFBD0024864
:1048D0000C300068C0B270470038004070470000DC
:1048E0000A4601464FF6FF730148FEF70BBD000074
:1048F000D802002000B5FBF781FF03480121817039
:104900000221417000BD00003C0600202DE9F0416D
:104910002DED028B9FED988A38B14FF47A71B1FB7F
:10492000F0F100EE101AB8EE408A01F0EDFDFFF74D
:10493000FFFA934A914B0020A2F1500404EB40018E
:10494000B1F9045042F82050B1F90A1000EE101AE3
:1049500003EB8001B8EEC00AD1ED040A02EB80013E
:10496000401C30EE600AC0B20328BDEEC00A81EDE3
:10497000030AE3D38248002110F1180052F82150B5
:1049800040F82150491CC9B20629F7D37C4D016972
:104990003035E960C168494229614169696190ED3A
:1049A000010AD3ED020AB8EEC00A30EE600ABDEE8D
:1049B000C00A85ED000A90ED000AD3ED010AB8EEB9
:1049C000C00A30EEC00ABDEEC00A85ED010A90EDC6
:1049D000020AD3ED030AB8EEC00A30EE600ABDEE5B
:1049E000C00A85ED020A01F0EFFD05F12402002066
:1049F000B5EE000A02F1300305EB8001D1ED030AA8
:104A000002EB8001F8EEE00AC1ED090A55F820102A
:104A100000EE901A03EB8001F8EEE00AC1ED090AFE
:104A20005FF0030101EB410702EB870606EB80060E
:104A3000491E96ED001A56ED030A11F0FF0131EE02
:104A4000601A41EE000A46ED030A03EB870606EB07
:104A5000800696ED001A56ED030A31EE601A41EE1B
:104A6000000A46ED030ADDD1401CC0B20328C3D3BF
:104A70009FED441A42488C3800EB810502EB810619
:104A8000D5ED030A491CC5ED060A96ED000AC9B228
:104A9000032920EE010A85ED030A30EE600A20EEBC
:104AA000080A85ED090AE7D390ED0B1AD0ED010A4B
:104AB00090ED0A0A90ED022A61EE201A002140EEE4
:104AC000421AC0ED0C1AD0ED091A61EE822A90ED5F
:104AD000002A20EE020A41EE422A01EEE00AC0ED71
:104AE0000D2A80ED0E0A9FED280A00BF02EB81051A
:104AF00004EB4106D5ED000A04EB8105C5ED090A7A
:104B000000EB810595ED0C1A03EB8105491CC1EE04
:104B1000000A95ED001AC9B2032971EE600AFDEE94
:104B2000E00A10EE905A3582E0D30020DFED171A2C
:104B30009FED171A04EB800104EB4002D1ED090A46
:104B4000401CC0B260EEA10A0328C1ED0C0A60EE61
:104B5000810AC1ED0F0AB2F9102000EE902AF8EE9A
:104B6000E00A60EE800AFDEEE00AC1ED060AE1D33C
:104B7000BDEC028BBDE8F0810000000004050020C0
:104B80008C06002078978B3A7D3FF53EE2007A3D17
:104B90004DF38E3C0149881FFEF74ABC46060020B3
:104BA00010B5284C2DED028B94ED180AB1EE400A99
:104BB00010EE100AFBF7BFFC9FED238B53EC182B74
:104BC000FBF710FC53EC182BFBF765FBFBF79AFC8B
:104BD0001F490860606EFBF7AEFC53EC182BFBF727
:104BE00001FC53EC182BFBF756FBFBF78BFC184929
:104BF000091D086094ED1A0AB1EE400A10EE100A81
:104C0000FBF799FC53EC182BFBF7ECFB53EC182B40
:104C1000FBF741FBFBF776FC0D49091F0860E06ECE
:104C2000FBF789FC53EC182BFBF7DCFB53EC182B40
:104C3000FBF731FBFBF766FC054908310860BDEC6A
:104C4000028B10BD400700200000000000407F40A4
:104C5000382C014010B5FCF787FFBDE81040FDF788
:104C60004BBD10B5A8B0382115A8FBF709FB1421DE
:104C700023A8FBF705FB54216846FBF701FB002046
:104C8000FDF704F80220C1011891402119911590F7
:104C90001C900421CDE91D015521CDE91F10219063
:104CA000229015A8FDF722FB0F200024239003205B
:104CB000CDE924042694042123A82794FDF7CCF9F8
:104CC00048F22100CDE9000440071190069468469F
:104CD000FDF742F828B010BD0548016841F47001A5
:104CE000016003494FF000608039086070470000A0
:104CF00088ED00E02DE9F04F02682A4B2A4E2B4F39
:104D0000DFF8ACC02B4C2C4D4FF0804B98420BD0B1
:104D1000584509D0B04207D0B84205D0604503D00D
:104D2000A04201D0A84204D122F070084A6842EAA9
:104D30000802DFF88880DFF88890DFF888A09842C2
:104D400011D058450FD0B0420DD0B8420BD06045BD
:104D500009D0A04207D0404505D0484503D0504572
:104D600001D0A84203D122F44076CA6832434E698A
:104D700022F08002324302608A68C2620A6882625C
:104D8000984209D0A04207D0404505D0484503D0FD
:104D9000504501D0A84201D1096901630121416157
:104DA000BDE8F08F002C01400004004000080040E6
:104DB000000C004000340140005001400040014020
:104DC000004401400048014010B501F01F030121DB
:104DD000046A99408C430462016A9A40114301625B
:104DE00010BD10B501F01F030421046A99408C43E3
:104DF0000462016A9A401143016210BD2DE9F04737
:104E0000026A22F001020262056A436882691F4C4D
:104E100025F0020522400C6822F0030214438A6840
:104E20001C4E2A431A4D1C4FDFF870C0DFF87090FB
:104E3000DFF870A0A84209D0B04207D0B84205D030
:104E4000604503D0484501D0504506D122F00808FE
:104E5000CA6842EA080222F00402A84209D0B0421D
:104E600007D0B84205D0604503D0484501D0504531
:104E700005D14D6923F440731D438B692B43436077
:104E80008461496841630262BDE8F0878FFFFEFFDD
:104E9000002C01400034014000400140004401402A
:104EA0000048014000500140F0B5026A22F01002B3
:104EB0000262056A426883691C4C1E4E23400C68DE
:104EC00023F4407343EA042425F020038D681A4F2D
:104ED00043EA0513164DA84203D0B04201D0B842B0
:104EE00007D1D1F80CC023F0800343EA0C1323F060
:104EF0004003A8420CD0B0420AD0104DA84207D0BF
:104F00000F4DA84204D00F4DA84201D0B84207D19E
:104F10004D6922F4406242EA85028D6942EA8502C7
:104F200042608461496881630362F0BDFF8FFFFEC8
:104F3000002C01400034014000500140004001407D
:104F40000044014000480140F0B5026A22F480723A
:104F50000262056A4268C3691C4C1E4E23400C68FD
:104F600023F003031C4325F400738D681A4F43EAB2
:104F70000523174DA84203D0B04201D0B84207D153
:104F8000D1F80CC023F4006343EA0C2323F48063BC
:104F9000A8420CD0B0420AD0104DA84207D0104D04
:104FA000A84204D00F4DA84201D0B84207D14D69A4
:104FB00022F4405242EA05128D6942EA051242602B
:104FC000C4614968C1630362F0BD00008FFFFEFF4A
:104FD000002C0140003401400050014000400140DD
:104FE0000044014000480140F0B5026A22F48052BA
:104FF0000262056A4268C3691C4C1E4E23400C685D
:1050000023F4407343EA042425F400538D681A4FB7
:1050100043EA0533164DA84203D0B04201D0B8424E
:1050200007D1D1F80CC023F4004343EA0C3323F436
:105030008043A8420CD0B0420AD0104DA84207D0FD
:105040000F4DA84204D00F4DA84201D0B84207D15D
:105050004D6922F4404242EA85128D6942EA851286
:105060004260C461496801640362F0BDFF8FFFFEC6
:10507000002C01400034014000500140004001403C
:10508000004401400048014030B5026A22F48032F9
:105090000262046A4268036D124D2B400D681D4385
:1050A00024F400330C8943EA04430F4CA0420ED091
:1050B0000E4CA0420BD00E4CA04208D00D4CA0428A
:1050C00005D00D4CA04202D00C4CA04204D14C693A
:1050D00022F4803242EA0422426005654968816414
:1050E000036230BD8FFFFEFF002C01400034014001
:1050F0000040014000440140004801400050014090
:1051000030B5026A22F480120262046A4268036DBA
:10511000134D24F400142B400D6843EA05230D8938
:1051200044EA05540F4DA8420ED00F4DA8420BD0B3
:105130000E4DA84208D00E4DA84205D00D4DA842F4
:1051400002D00D4DA84204D14D6922F4802242EADA
:105150008522426003654968C164046230BD000075
:10516000FF8FFFFE002C0140003401400040014051
:105170000044014000480140005001403FB514A1E7
:10518000D1E90021CDE9002113A2D2E90012CDE935
:105190000212416EB9B1026891689268C1F342612E
:1051A000520F1DF80240E50002ACA25CB5FBF2F222
:1051B000A0F86A201DF80120615CD200B2FBF1F179
:1051C000A0F868103FBD0121A0F86A10F8E70000C0
:1051D00001010103070100000804020408010101A4
:1051E00090F82810C90706D001684A68C36A22F4FB
:1051F00000321A434A6090F82810890706D50168E2
:105200004A68036B22F480321A434A6090F82810EF
:10521000490706D501684A68436B22F480221A4385
:105220004A6090F82810090706D501684A68836B20
:1052300022F400421A434A6090F82810C90606D5A5
:1052400001688A68C36B22F480521A438A6090F81E
:105250002810890606D501688A68036C22F400527A
:105260001A438A6090F82810490611D501684A68E7
:10527000436C22F480121A434A60416CB1F5801FDE
:1052800006D101684A68836C22F4C0021A434A605E
:1052900090F82810090606D501684A68C06C22F407
:1052A000002202434A607047F8B500260446C0F861
:1052B0008860FCF753FC0546206800686FF07E4765
:1052C000000708D52B4600224FF400112046009716
:1052D00000F0EEFC60B92068006840070AD52B4654
:1052E00000224FF480012046009700F0E1FC08B155
:1052F0000320F8BD2020C4F88000C4F8840084F89E
:105300007C600020F8BD10B5806A0021A0F85E1016
:10531000A0F85610FDF7D6FD10BD000001680A6820
:1053200022F490720A6001688A68044B1A408A600D
:105330002021C0F884100021C1667047FEFFFFEFF6
:1053400010B5B0F86020D0F884300168222B04D06A
:10535000886940F00800886110BD496A836D11407A
:105360001980816D891C8165B0F85E10491EA0F816
:105370005E10B0F85E100029EED101680A6822F4D0
:1053800090720A6001688A6822F001028A60202116
:10539000C0F884100021C166FDF78CFF10BD00002D
:1053A00070B50446B0F86060D0F88400222805D0BB
:1053B0002068816941F00801816170BDB4F86850CE
:1053C00023E02068406AA16D30400880A06D801CF9
:1053D000A065B4F85E00401EA4F85E00B4F85E005C
:1053E00088B92068016821F48071016020688168B3
:1053F000114A114081602020C4F884000020E0663A
:105400002046FDF757FF6D1EADB2002DD9D1B4F87F
:105410005E000028D1D0B4F868108142CDD9206850
:10542000816821F0805181600448E066206801684D
:1054300041F02001016070BDFEFFFFEF4153000805
:1054400010B5B0F86020D0F884300168222B04D069
:10545000886940F00800886110BD496A1140826D7A
:105460001170816D491C8165B0F85E10491EA0F86D
:105470005E10B0F85E100029EED101680A6822F4CF
:1054800090720A6001688A6822F001028A60202115
:10549000C0F884100021C166FDF70CFF10BD0000AC
:1054A00070B50446B0F86060D0F88400222805D0BA
:1054B0002068816941F00801816170BDB4F86850CD
:1054C00023E02068406AA16D30400870A06D401C48
:1054D000A065B4F85E00401EA4F85E00B4F85E005B
:1054E00088B92068016821F48071016020688168B2
:1054F000114A114081602020C4F884000020E06639
:105500002046FDF7D7FE6D1EADB2002DD9D1B4F8FF
:105510005E000028D1D0B4F868108142CDD920684F
:10552000816821F0805181600448E066206801684C
:1055300041F02001016070BDFEFFFFEF4154000803
:105540002DE9F05F0446016880682369E569184326
:10555000636900272B431843636EF64A03430868C8
:10556000F54D28401843086020684168E36821F43D
:105570004051194341602168A069914201D0236ADA
:1055800018438B68ED4D2B4003438B602068C16A44
:10559000636A21F00F011943C162EA49E84B2068B0
:1055A0008E1598420DD1D1F8881011F0030106D064
:1055B000012969D0022965D0032950D166E001256F
:1055C0004EE0E14B98420BD1D1F8881011F00C015C
:1055D00056D0042958D0082954D00C293FD155E081
:1055E000DA4B98420BD1D1F8881011F0300147D036
:1055F000102949D0202945D0302930D146E0D44B5C
:1056000098420BD1D1F8881011F0C00138D0402950
:105610003AD0802936D0C02921D137E0CD4B9842ED
:105620000DD1D1F8881011F4407129D0B1422BD09E
:10563000B1F5007F26D0B1F5407F10D126E0904231
:105640000DD1D1F8881011F4406119D0B1F5806FF7
:105650001AD0B1F5006F15D0B1F5406F16D01025F6
:10566000DFF8F4A24FF000094FF4004B90426ED1E6
:1056700075B1022D29D0042D59D0082D68D176E0BE
:105680000025EDE70225EBE70425E9E70825E7E734
:10569000FCF7D0FD4DE0012851D0022851D003285D
:1056A00051D0042851D0052853D0062853D00728BC
:1056B00053D0082853D0092853D00A2853D00B2898
:1056C00053D03AE0B1FBF0F06CE0606AA8B1012879
:1056D00017D0022817D0032817D0042817D0052880
:1056E00017D0062817D0072817D0082817D0092860
:1056F00017D00A2817D00B2817D00120BAFBF0F0DA
:1057000050E00220FAE70420F8E70620F6E7082038
:10571000F4E70A20F2E70C20F0E71020EEE7202063
:10572000ECE74020EAE78020E8E73046E6E7FCF7D0
:10573000A5FD0146606A0028ADD10120C2E7022024
:10574000C0E70420BEE70620BCE70820BAE738E13E
:105750004AE00A20B6E70C20B4E71020B2E7202088
:10576000B0E74020AEE78020ACE73046AAE7606AA9
:10577000A8B1012822D0022822D0032822D0042850
:1057800022D0052822D0062822D0072822D0082897
:1057900022D0092822D00A2822D00B2822D001208A
:1057A000BBFBF0F0002820D06168884601EB410186
:1057B000814219D8B0EB083F16D817E00220EFE776
:1057C0000420EDE70620EBE70820E9E70A20E7E7F9
:1057D0000C20E5E71020E3E72020E1E74020DFE7A9
:1057E0008020DDE73046DBE701270EE27DB3022DA6
:1057F0007ED0042D73D0082DF6D1606AA8B101289F
:105800006ED002286DD003286CD004286BD00528F8
:105810006AD0062869D0072868D0082867D00928E8
:105820007ED00A287DD00B2800D0012632464D4676
:10583000002358460021FAF7EBFC090241EA106107
:1058400002024FEA58001018694142463DE0FFE766
:10585000FCF7F0FC9AE0012815D0022815D00328A7
:1058600015D0042815D0052815D0062815D00728EE
:1058700015D0082815D0092815D00A2815D00B28CE
:1058800014D0012612E0022610E004260EE00626BF
:105890000CE008260AE00A2608E00C2606E010269E
:1058A00004E0202602E0402600E08026002308468F
:1058B00032464D461946FAF7ABFC0902626841EAE6
:1058C000106103025008181869410023FAF7A0FC80
:1058D000224AA0F54071914270D985E708E053E073
:1058E0005AE05BE05CE05DE05EE05FE060E061E0CC
:1058F000606AC0B1012833D0022833D0032833D0E6
:10590000042833D0052833D0062833D0072833D0D5
:10591000082833D0092833D00A2833D00B2801E0D7
:105920004AE04CE000D0012632464D460023504666
:1059300080E7000000800040F369FFCFFFF4FF1113
:105940000038014000100240004400400048004080
:10595000004C0040005000400024F400FFFC0F0009
:105960000226E1E70426DFE70626DDE70826DBE777
:105970000A26D9E70C26D7E71026D5E72026D3E755
:105980004026D1E78026CFE7FCF778FC0146606A25
:1059900000283FF476AF5EE7022647E7042645E796
:1059A000062643E7082641E70A263FE70C263DE79F
:1059B00010263BE7202639E7402637E723E18026FB
:1059C00034E7E0694FF6EF7858456ED1092D84D25F
:1059D000DFE805F006093C0580050505830003E7BF
:1059E000FCF728FC01E0FCF737FC0146606AA8B12F
:1059F000012815D0022815D0032815D0042815D069
:105A0000052815D0062815D0072815D0082815D048
:105A1000092815D00A2815D00B2814D0012612E029
:105A2000022610E004260EE006260CE008260AE016
:105A30000A2608E00C2606E0102604E0202602E0F4
:105A4000402600E08026B1FBF6F01AE0606AA8B1BB
:105A500001282BD002282BD003282BD004282BD0B0
:105A600005282BD006282BD007282BD008282BD090
:105A700009282BD00A282BD00B2800D00126BAFBEE
:105A8000F6F04100606801EB5001B1FBF0F080B22C
:105A9000A0F110014145A2D84FF6F0710140C0F3CA
:105AA000420001432068C160AFE046E00226E6E71D
:105AB0000426E4E70626E2E70826E0E70A26DEE712
:105AC0000C26DCE71026DAE72026D8E74026D6E7C2
:105AD0008026D4E7FCF7D2FB87E7606AA8B10128EB
